:020000020000FC
:0C0000000D941B340C9400000C940000C4
:10000C000C9400000C9400000C9400000C94000064
:10001C000C9400000C9400000C9400000C94000054
:10002C000C9400000C9400000C9400000C94000044
:10003C000C9400000C9400000C9400000C94000034
:10004C000C9400000C9400000C9400000C94000024
:10005C000C9400000C9400000C9400000C94000014
:10006C000C9400000C9400000C9400000C94000004
:10007C000C9400000C9400000C9400000C940000F4
:10008C000C9400000C9400000C9400000C940000E4
:10009C000C9400000C9400000C9400000C940000D4
:1000AC000C9400000C9400000C9400000C940000C4
:1000BC000C9400000C9400000C9400000C940000B4
:1000CC000C9400000C9400000C9400000C940000A4
:1000DC000C9400000C940000FFFFF0FFFFF0FFFFFA
:1000EC00F0FFFFF0FFFFF0FFFFF0FFFFF0FFFFF06E
:1000FC00FFFFF0FFFFF0FFFFF0FFFFF0FFFFF0FF4F
:10010C00FFF0FFFFF0FFFFF0FFFFF0FFFFF0FFFF3E
:10011C00F0FFFFF0FFFFF0FFFFF0FFFFF0FFFFF03D
:10012C00FFFFF0FFFFF0FFFFF0FFFFF0FFFFF0FF1E
:10013C00FFF0FFFFF0FFFFF0FFFFF0FFFFF0FFFF0E
:10014C00F0FFFFF0FFFFF0FFFFF0FFFFF0FFFFF00D
:10015C00FFFFF0FFFFF0FFFFF0FFFFF0FFFFF0FFEE
:10016C00FFF0FFFFF0FFFFF0FFFFF0FFFFF0FFFFDE
:10017C00F0FFFFF0FFFFF0FFFFF0FFFFF0FFFFF0DD
:10018C00FFFFF0FFFFF0FFFFF0FFFFF0FFFFF0FFBE
:10019C00FFF0FFFFF0FFFFF0FFFFF0FFFFF0FFFFAE
:1001AC00F0FFFFF0FFFFF0FFFFF0FFFFF0FFFFF0AD
:1001BC00FFFFF0FFFFF0FFFFF0FFFFF0FFFFF0FF8E
:1001CC00FFF0FFFFF0FFFFF0FFFFF0FFFFF0FFFF7E
:1001DC00F0FFFFF0FFFFF0FFFFF0FFFFF0FFFFF07D
:1001EC00FFFFF0FFFFF0FFFFF0FFFFF0FFFFF0FF5E
:1001FC00FFF0FFFFF0FFFFF0FFFFF0FFFFF0FFFF4E
:10020C00F0FFFFF0FFFFF0FFFFF0FFFFF0FFFFF04C
:10021C00FFFFF0FFFFF0FFFFF0FFFFF0FFFFF0FF2D
:10022C00FFF0FFFFF0FFFFF0FFFFF0FFFFF0FFFF1D
:10023C00F0FFFFF0FFFFF0FFFFF0FFFFF0FFFFF01C
:10024C00FFFFF0FFFFF0FFFFF0FFFFF0FFFFF0FFFD
:10025C00FFF0FFFFF0FFFFF0FFFFF0FFFFF0FFFFED
:10026C00F0FFFFF0FFFFF0FFFFF0FFFFF0FFFFF0EC
:10027C00FFFFF0FFFFF0FFFFF0FFFFF0FFFFF0FFCD
:10028C00FFF0FFFFF0FFFFF0FFFFF0FFFFF0FFFFBD
:10029C00F0FFFFF0FFFFF0FFFFF0FFFFF0FFFFF0BC
:1002AC00FFFFF0FFFFF0FFFFF0FFFFF0FFFFF0FF9D
:1002BC00FFF0FFFFF0FFFFF0FFFFF0FFFFF0FFFF8D
:1002CC00F0FFFFF0FFFFF0FFFFF0FFFFF0FFFFF08C
:1002DC00FFFFF0FFFFF0FFFFF0FFFFF0FFFFF0FF6D
:1002EC00FFF0FFFFF0FFFFF0FFFFF0FFFFF0FFFF5D
:1002FC00F0FFFFF0FFFFF0FFFFF0FFFFF0FFFFF05C
:10030C00FFFFF0FFFFF0FFFFF0FFFFF0FFFFF0FF3C
:10031C00FFF0FFFFF0FFFFF0FFFFF0FFFFF0FFFF2C
:10032C00F0FFFFF0FFFFF0FFFFF0FFFFF0FFFFF02B
:10033C00FFFFF0FFFFF0FFFFF0FFFFF0FFFFF0FF0C
:10034C00FFF0FFFFF0FFFFF0FFFFF0FFFFF0FFFFFC
:10035C00F0FFFFF0FFFFF0FFFFF0FFFFF0FFFFF0FB
:10036C00FFFFF0FFFFF0FFFFF0FFFFF0FFFFF0FFDC
:10037C00FFF0FFFFF0FFFFF0FFFFF0FFFFF0FFFFCC
:10038C00F0FFFFF0FFFFF0FFFFF0FFFFF0FFFFF0CB
:10039C00FFFFF0FFFFF0FFFFF0FFFFF0FFFFF0FFAC
:1003AC00FFF0FFFFF0FFFFF0FFFFF0FFFFF0FFFF9C
:1003BC00F0FFFFF0FFFFF0FFFFF0FFFFF0FFFFF09B
:1003CC00FFFFF0FFFFF0FFFFF0FFFFF0FFFFF0FF7C
:1003DC00FFF0FFFFF0FFFFF0FFFFF0FFFFF0FFFF6C
:1003EC00F0FFFFF0FFFFF0FFFFF0FFFFF0FFFFF06B
:1003FC00FFFFF0FFFFF0FFFFF0FFFFF0FFFFF0FF4C
:10040C00FFF0FFFFF0FFFFF0FFFFF0FFFFF0FFFF3B
:10041C00F0FFFFF0FFFFF0FFFFF0FFFFF0FFFFF03A
:10042C00FFFFF0FFFFF0FFFFF0FFFFF0FFFFF0FF1B
:10043C00FFF0FFFFF0FFFFF0FFFFF0FFFFF0FFFF0B
:10044C00F0FFFFF0FFFFF0FFFFF0FFFFF0FFFFF00A
:10045C00FFFFF0FFFFF0FFFFF0FFFFF0FFFFF0FFEB
:10046C00FFF0FFFFF0FFFFF0FFFFF0FFFFF0FFFFDB
:10047C00F0FFFFF0FFFFF0FFFFF0FFFFF0FFFFF0DA
:10048C00FFFFF0FFFFF0FFFFF0FFFFF0FFFFF0FFBB
:10049C00FFF0FFFFF0FFFFF0FFFFF0FFFFF0FFFFAB
:1004AC00F0FFFFF0FFFFF0FFFFF0FFFFF0FFFFF0AA
:1004BC00FFFFF0FFFFF0FFFFF0FFFFF0FFFFF0FF8B
:1004CC00FFF0FFFFF0FFFFF0FFFFF0FFFFF0FFFF7B
:1004DC00F0FFFFF0FFFFF0FFFFE0FFFFE0FFFFE0AA
:1004EC00FFFFE0FFFFE0FFFFE0FFFFF0FFFFF0FF8B
:1004FC00FFF0FFFFF0FFFFF0FFFFF0FFFFF0FFFF4B
:10050C00D0FFFFD0FFFFC0FFFFC0FFFFC0FFFFC049
:10051C00FFFFC0FFFFC0FFFF80FFFFE0FFFFF0FF0A
:10052C00FFF0FFFFF0FFFFF0FFFFF0FFFFF0FFFF1A
:10053C00F0FFFFF0FFFFF0FFFFF0FFFFF0FFFFF019
:10054C00FFFFB0FFFF10FFFF10FFFF80FFFF80FFDA
:10055C00FFC0FFFFC0FFFFC0FFFF00FFFF00FFFF5A
:10056C0000FFFF80FFFF80FFFF80FFFF80FFFF0089
:10057C00FFFF00FFFF00FFFF00FFFF00FFFF00FF7A
:10058C00FF80FFFF80FFFF80FFF800FFF800FFF8FF
:10059C0000FFF800FFF800FFF800FFFC00FFFC0074
:1005AC00FFFC00FFF800FFFC00FFFE00FFFE00FF59
:1005BC00FE00FFFF00FFFF80FFF800FFF800FFF0D8
:1005CC0000FFF000FFF000FFF000FFF000FFF00074
:1005DC00FFFC00FFFC00FFFE00FFFF00FFFF00FF21
:1005EC00FF00FFFF00FFFF80FFFC00FFFC00FFF09F
:1005FC0000FFF000FFF000FFFC00FFFC00FFFC0020
:10060C00FFFF00FFFF80FFFF80FFFF80FFFF80FFE9
:10061C00FF80FFFFC0FFFFE0FFFE00FFFC00FFFCC0
:10062C0000FFF800FFF800FFFE00FFFE00FFFF00D8
:10063C00FFFF80FFFFC0FFFFC0FFFFC0FFFFC0FF39
:10064C00FFC0FFFFF0FFFFF0FFFE00FFFE00FFFE0C
:10065C0000FFFC00FFFC00FFFE00BFFE00FFFF8060
:10066C00FFFFC0FFFFC0FFFFC0FFFFC0FFFFC0FFC9
:10067C00FFC0FFFFF0FFFFF01FFF000FFF000FFF99
:10068C00001FFF001FFE001FFF001FFF001FFF00C9
:10069C001FFF801FFFC03FFFC03FFFC07FFFC07F19
:1006AC00FFC0FFFFF0FFFFF01FFF000FFF000FFF69
:1006BC00001FFF001FFE001FFF001FFF001FFF0099
:1006CC001FFF801FFFC03FFFC03FFFC07FFFC07FE9
:1006DC00FFC0FFFFF0FFFFF00FFF800FFF8007FF51
:1006EC008007FF800FFF800FFF000FFF0007FF0048
:1006FC000FFF800FFFC00FFFC01FFFC01FFFC03FC9
:10070C00FFF03FFFF07FFFF007FF8007FF8007FF40
:10071C008007FF0007FF8007FF8007FF8007FF802F
:10072C0007FF8007FFC007FFC00FFFC01FFFC01FE0
:10073C00FFF01FFFF03FFFF003FF8003FF8003FF7C
:10074C008002FF8002FF8002FF8002FF8003FF8097
:10075C0003FFC003FFC007FFC007FFC00FFFF00F70
:10076C00FFF01FFFF01FFFF001FF8001FF8001FF72
:10077C008001FF8003FF8003FF0001FF0001FFC029
:10078C0001FFC003FFC007FFC007FFF007FFF00722
:10079C00FFF00FFFF00FFFF001FF8000FF8000FF64
:1007AC008001FF0001FF0001FF8001FF8001FFC0FD
:1007BC0001FFC001FFC007FFE007FFF003FFF003DC
:1007CC00FFF007FFF007FF7000FF8000FF8000FFC5
:1007DC008000FF0000FF0000FF0000FF8000FFC052
:1007EC0000FFC001FFC003FFC003FFF003FFE003E5
:1007FC00FFE003FF7007FF7001FF8000FF8000FF28
:10080C0080007F80007F80007F0000FF0000FF8061
:10081C0000FF8000FFC003FFC001FFE001FFE00309
:10082C00FFC003FFC007FFC000FF8000FF0000FFF8
:10083C0000007F00007F00007F00007F0000FF00B1
:10084C0000FF8001FF8003FF8003FFC003FFC00394
:10085C00FFC003FFC007FFC000FF0001FE0001FE48
:10086C000000FF00007F00007F0000FF0001FF0080
:10087C0001FF0003FF0003FF8003FF8003FD8007DF
:10088C00FF8007FB8007F98001FE0001FE0000FEDF
:10089C000000FE0000FE0000FE0000FC0001FE0057
:1008AC0003FF0003FB0007FF0003FB0007FB00072F
:1008BC00FB800FFB800FFB8001FE0003FE0001FCA0
:1008CC000000FC0000FC0000FC0001FC0003FE002A
:1008DC0003FE0003FE0007FF0007F70007F7000FF9
:1008EC00F7000FF7001FF78001FE0003FC0001FC6E
:1008FC000001F80001FC0000FC0000FC0003FC00FF
:10090C0003FE0003FE0007FE0007FF000FFF000FB1
:10091C00FF000FFF001FFF0003FE0001FC0003FCA3
:10092C000001F80001F80001F80001F80003F800DC
:10093C0003FC0007FE0007FE0007FE000FEF000F90
:10094C00EF000FEF001FEF0003FC0001FC0003F8A9
:10095C000001F80001F00001F80001F80003F800B4
:10096C0003FC0007FC0007FE0007FE000FFE000F53
:10097C00FE001FFF001FFF0003FC0001F80003F83E
:10098C000001F80001F00003F00001F00003F80092
:10099C0003F80007FC0007FC0007FC000DFE000F2D
:1009AC00FE001FFE001FFE0007FC0003F80003F012
:1009BC000001F00003F00001F00003F00003F00070
:1009CC0007F80007F8000FFC000DFC000DFC000FF1
:1009DC00FE001FFE001FFE0007F80003F80007F0E2
:1009EC000003E00003F00003F00003F00007F00048
:1009FC0007F80007F8000DF8000DF8000DFC001FBB
:100A0C00FC001FFC001FFC0007F80003F00007E0CF
:100A1C000003E00003E00003E00003E00007F00047
:100A2C0007F00007F0000DF8000DF8000DF8001F9E
:100A3C00FC001FFC001FFC0007F00003F00007E0A7
:100A4C000003E00003E00003E00003E00007E00027
:100A5C0007F00007F0000DF0000DF8000DF8000F86
:100A6C00FC001FF8001FFC0007F00007F00007E077
:100A7C000007E00003C00003E00003E00007E00013
:100A8C0007F00007F00007F00007F8000FF8000F60
:100A9C00FC001FF8001FFC0007F00007F00003F03B
:100AAC000003E00003E00003C00003E00003E000EB
:100ABC0003F00007F00007F00007F8000FF8000F34
:100ACC00FC000FFC000FFC0007F80003F00001E035
:100ADC000003E00003E00003E00003F00003F0007B
:100AEC0003F80002F80006F80006F80006FC000EF9
:100AFC00FC000FFC000FFC0003F80003F80001F0F1
:100B0C000001E00001E00003E00001F00003F00050
:100B1C0003F80003F80003F80003FC0007FC0007CF
:100B2C00FC0006FC0007FC0003F80003F80001F0D1
:100B3C000001F00001E00001F00001F00001F800FC
:100B4C0003F80003F800037800037C00037C000723
:100B5C00FE0003FC0006FC0003F80003F80001F0A3
:100B6C000000F00000F00001F00001F00001F800BE
:100B7C0003F80003F80003FC0003FC0003FE000371
:100B8C00FE0003FE0003FE0001B80001F80001F0B6
:100B9C000000F80000F00000F00000F00001F80088
:100BAC0003FC0002FC0002FC0003FC0003FE00033B
:100BBC00FE0003FE0001FE0000380001F80001F801
:100BCC000000F80000F00000F00000F00001F80058
:100BDC0001FC0002FC0002FC0003FE0003FE00030B
:100BEC00FE0001FE0001FE0000F80001F80000F01C
:100BFC000000F80000700000700000F80000F80021
:100C0C0001FC0001FC0002FC0003FE0003FE0001DD
:100C1C00FE0001FE0001FE0000F80001F80000F0EB
:100C2C000000F80000780000780000780000F80060
:100C3C0000FC0001FC0001F40001FE0003FE0001B9
:100C4C00FE0001FE0000FE0000FC0000FC0000F8AD
:100C5C000000780000780000780000780000F800B0
:100C6C0000FC0000F40001F60001FE0001FF000191
:100C7C00FE0000FF0000FE0000FC0000FC0000F87D
:100C8C000000780000780000780000780000FC007C
:100C9C0000FC0000F40000F60001FE0001FF000162
:100CAC00FE0000FE0000FF0000FC0000FC000078CD
:100CBC0000007C0000780000780000780000FC0048
:100CCC0000FC0000FC0000F60001F60001FF000132
:100CDC00FE0000FE0000FE00000C0000FC0000FC0A
:100CEC0000007800007800003800007800007C00DC
:100CFC00007C0000FC0000FC0001FE0001FE000175
:100D0C00FE0000FE0000FE0000080000FC0000F8E1
:100D1C000000780000780000380000780000F8002F
:100D2C0000FC0000FC0001FC0001FE0001FE0001C3
:100D3C00FE0000FE0000FA0000080000F80000F8B9
:100D4C000000780000780000780000780000F800BF
:100D5C0000F80000FC0001EC0001FC0001FE0001A9
:100D6C00F60001FE0001FA0000C00000F80000F8D7
:100D7C000000F00000700000700000F00000F800AF
:100D8C0000E80001E80001EC0003EC0001FC0001AC
:100D9C00FC0001F40001FA0000C00000F80000F8AB
:100DAC000000F00000700000700000F00001F8007E
:100DBC0001F80001E80001E80003EC0003EC00037B
:100DCC00FC0001F40001FC0000C00000F80000F879
:100DDC000000F00000700000700000F00001F8004E
:100DEC0001F80001F80003F80003F80003FC00030D
:100DFC00EC0003FC0001F40000800000F80000F897
:100E0C000000F00000F00000E00000F00000F8002E
:100E1C0001F80001F80003F80003F80003F80003E0
:100E2C00FC0003F80003F00000000000F00000F8E4
:100E3C000000F00000F00000E00000F00000F00006
:100E4C0001F80001F80003D80003F80003F80003D0
:100E5C00F80003E80003F80000000001F00001F0C6
:100E6C000000F00000E00000E00000E00001F000F5
:100E7C0001F00003F80003D80003D80003F80003C6
:100E8C00F80007F80003F80000000001F00001F082
:100E9C000000F00000E00000E00000E00001F000C5
:100EAC0001F00003F00003F80007F80007F8000752
:100EBC00F80007F00007F00001000001F00001F05D
:100ECC000001E00000E00000E00000E00001F000A4
:100EDC0001F00003F00003F00007F80007F800072A
:100EEC00F00007F00007F00001000001F00001F035
:100EFC000001E00000E00000E00000E00001E00084
:100F0C0003F00003F00003F00007F00007F80007FF
:100F1C00F00007F00007F00001000001F00001E014
:100F2C000001E00001C00001C00001E00001E00090
:100F3C0003E00003F00003F00007F00007F00007E7
:100F4C00F00007F00007F00000000003E00003E0F1
:100F5C000001E00001C00001C00001E00001E00060
:100F6C0001E00003F00003F00007F00007F00007B9
:100F7C00F00007F00007F00000000001F00001E0B5
:100F8C000001E00001C00001C00001E00001F00020
:100F9C0001F00003F00003F00007F00007F0000779
:100FAC00F00007F00005F00000000001F00001F077
:100FBC000000E00001E00001E00001E00001F000B1
:100FCC0001F00001700003780003F80003F8000240
:100FDC00F00003F00001F80000000001F00001F047
:100FEC000000E00000E00000E00001F00001F00073
:100FFC0001F00001700003780003780003F800038F
:10100C00F00002F80001F80000000001F00001F00F
:10101C000000F00000E00000E00000F00001F00033
:10102C0001F00001F80001F80003F8000378000358
:10103C00F80002F80003F80000000001F00001F0D5
:10104C000000F00000E00000E00000F00001F800FB
:10105C0001F80001F80001F80001FC0001FC00019E
:10106C00F80003F80000F80000000000B00001F0E8
:10107C000000F00000F00000F00000F00001F000B3
:10108C0001F80000F80001FC0001FC0001FC00016B
:10109C007C0001F80000FC0000000000300000F0B3
:1010AC000000F00000700000700000F00000F00084
:1010BC0001F80001F80001BC0001BC0001FC0001BA
:1010CC00FC0001FC0000FC0000000000F00000F837
:1010DC000000F00000700000700000700000F800CC
:1010EC0001F80001F80001FC0001FC0001FC00010A
:1010FC00FC0001FC0000FC0000000000F80000F8FF
:10110C000000700000700000700000700000F8001B
:10111C0000F80001FC0001FC0001FE0001FC0001D4
:10112C00FC0000FE0000FC0000080000F80000F8C5
:10113C000000780000700000700000700000F800E3
:10114C0000F80000FC0001FC0001FE0000FE0000A5
:10115C00FE0000FE0000FE0000180000F80000F881
:10116C00000078000070000070000078000078002B
:10117C0000FC0000FC0001FC0001FE0000FE000071
:10118C00FE00007E0000FE0000080000F800007861
:10119C000000780000380000300000780000780073
:1011AC0000FC0000FC0001FC0001FE0000FE000041
:1011BC00FE00007E0000FE00000000007C000078B5
:1011CC000000780000780000380000700000780003
:1011DC0000F80000FC0001FC0001FE0001FE000014
:1011EC00FE00007A0000FE0000000000F80000780D
:1011FC000000780000700000380000780000F80053
:10120C0000F80000F80001FC0001FE0001FE0001E6
:10121C00FE0000FE0000FA0000000000F80000F8DC
:10122C000000700000700000700000780000F800F2
:10123C0000F80001E80001EC0001FC0001FC0001D9
:10124C00F40000FE0001FA0000000000F80000F8B5
:10125C000000700000700000700000F00000F8004A
:10126C0000F80001E80001EC0001EC0001FC0001B9
:10127C00FC0001F40001F80000000000F80000F888
:10128C000000F00000700000700000F00000F8009A
:10129C0000F80001F80001F80003FC0003EC000169
:1012AC00FC0001F40001F80000000000F80000F858
:1012BC000000F00000700000700000F00001F80069
:1012CC0001F80001F80003F80003F80003F800032C
:1012DC00F80001FC0001F00000000000D00000F854
:1012EC000000F00000700000600000F00000F00052
:1012FC0001F80001F80003F80003F80003F80003FC
:10130C00F80003F80003F00000000000C00000F833
:10131C000000F00000F00000600000F00000F000A1
:10132C0001F80001F80003D80003D80003F800030B
:10133C00F80003F80003F80000000000F00000F8CB
:10134C000000F00000F00000E00000F00000F000F1
:10135C0001F80001F80003F80003F80003F800039B
:10136C00F80003F80003F80000000000F80000F893
:10137C000000F00000F00000F00000F00000F000B1
:10138C0001F80001F80001F80003FC0003FC000365
:10139C00FC0003F80003F80000C00001FC0000F89A
:1013AC000000F80000F00000700000F00000F800F1
:1013BC0001F80001F80001FC0003EC0003FE00033F
:1013CC00FE0003FE0003FC0001C00001FC0000FC59
:1013DC000000F80000F80000700000780000F80031
:1013EC0000FC0001FC0001FC0001FE0001FE0003FA
:1013FC00FF0003FF0003FF0001C80001FE0000FC1A
:10140C000000FC0000F80000780000780000F800F4
:10141C0000FC0001FC0001FE0001FE0001FF0001C8
:10142C00FF0003FF0003FB8000C00001FE0000FE74
:10143C000000FE0000FC00007C00007C0000F800B6
:10144C0000FC0000FC0001FE0000FE0000FB00019F
:10145C00FB8001FB8001FF8000C60000FF0000FF45
:10146C000000FF00007E00007E0000FC0000FC007D
:10147C0000FC0000FC00007E0000FF00007F8000EC
:10148C007D8000FD8000FD8000670000FF8000FF74
:10149C0080007F00007F00007E00007E00007E0048
:1014AC00007E00007E00007E00007F00007F800038
:1014BC007DC0007DC000FDE0007780007F80007F54
:1014CC0080007F80007F80003F00003F00007F0095
:1014DC00007E00007F00003F00003F80003F800046
:1014EC003FC0003FE0007EE0003F80003F80003FB7
:1014FC0080003F80003F80003F80003F80003F80A5
:10150C00003F80003F00003F00003F80003FC000D4
:10151C003FC0003EE0007EF0000B80001F80003FCB
:10152C0080003F80003FC0003FC0001F80001F8034
:10153C00001F80001F80003F80003F80003F800024
:10154C003FC0003FE007FFF0000180001F80003F1C
:10155C0080003F80003FC0003FC0001FC0001FC084
:10156C00001FC0001FC0001FC0001F80003F800272
:10157C003FC007FFC007FFE0000300000700001F8B
:10158C0080003F80003F80001FC0001FC0001FC0B4
:10159C00000FC0000FC0000FC0001F80071F800786
:1015AC003FC007FF8003FFC0000200000600000FD1
:1015BC0080001F80003F80001F80001FC0001FC0E4
:1015CC00000FC0000FC0000FC0031F80071F800753
:1015DC00FF8003FF8000FF80000000000600000F6A
:1015EC0080001F80003F80001F80001F80001F8034
:1015FC00000FC0000FC0000FC0071F00071F000323
:10160C00FF8000FF8000FF80000000000600000F3C
:10161C0000001F80003F80001F80001F80001F8083
:10162C00000F80000F80000F80071F00079F000332
:10163C00FF8001FF8001FF80000000000C00000F04
:10164C0000001F80003F80003F80001F80001F8033
:10165C00000F80000F80030F80071F0007FF0001A1
:10166C00FF8001FF8001FF80000000000C00000FD4
:10167C0000001F80003F80003F80001F80001F8003
:10168C00000F80000F80070F00071F0003FF0001F1
:10169C00FF8001FF8001FF80000000000C00000FA4
:1016AC0000003F80003F80003F80001F80001F80B3
:1016BC00001F80000F80070F00071F0003FF0001B1
:1016CC00FF8001FF8003FF80000000000800000F76
:1016DC0000003F00003F80003F80001F80001F8003
:1016EC00001F80000F00070F00071F0003FF000101
:1016FC00FF8001FF8003FF80000000001800001F26
:10170C0000003F00003F80003F80001F80001F80D2
:10171C00001F80000F00070F00079F0003FF000150
:10172C00FF8001FF8003FF80000000001800001FF5
:10173C0000003F00003F00003F80003F80001F8002
:10174C00001F80000F80070F00079F0003FF0001A0
:10175C00FF0001FF8003FF80000000001800001E46
:10176C0000003F00003F00003F80003F80001F80D2
:10177C00001F80000F80070F00071F0003FF0001F0
:10178C00FF0001FF8001FF80000000001800001E18
:10179C0000003F00003F00003F80003F80001F80A2
:1017AC00001F80001F80071F00071F0003FF0001A0
:1017BC00FF0001FF0001FF80000000001800001E68
:1017CC0000003F00003F00003F80003F80001F8072
:1017DC00001F80001F80071F00071F0003FF000170
:1017EC00FF0001FF0001FF80000000001800001F37
:1017FC0000003F00003F00003F80003F80001F8042
:10180C00001F80001F00071F00071F0003FF0001BF
:10181C00FF0001FF0001FF80000000001800001F06
:10182C0000003F00003F80003F80003F80001F8091
:10183C00001F80021F00071F00079F0003FF00010D
:10184C00FF0001FF0001FF80000000001800001FD6
:10185C0000003F00003F80003F80003F80001F8061
:10186C00001F80011F00071F00039F0003FF0001E2
:10187C00FF0001FF0001FF80000000001800001FA6
:10188C0000003F00003F80003F80003F80001F8031
:10189C00001F80011F80031F00039F0003FF000136
:1018AC00FF0001FF0001FF80000000001800001F76
:1018BC0000003F00003F80003F80003F80001F8001
:1018CC00001F80010F80031F00039F0001FF000118
:1018DC00FF0001FF0001FF80000000001C00001F42
:1018EC0000003F80003F80003F80003F80001F8051
:1018FC00001F80030F80039F00039F0001FF000166
:10190C00FF0001FF8001FF80001800001C00001F79
:10191C0000003F80003F80003F80003F80001F8020
:10192C00001F80030F80038F80039F8001FF000145
:10193C00FF0001FF8001FF80001800001F00001F46
:10194C0080003F80003F80003F80003F80001F8070
:10195C00001F80030F80038F80039F8000FF000116
:10196C00FF0001FF8001FF80001800001F00001F16
:10197C0080003F80003F80003F80003F80001F8040
:10198C00001F80030F80038F80039F0000FF000067
:10199C00FF8001FF8001FF80001C00000F00001F72
:1019AC0080003F80003F80003F80003F80001F8010
:1019BC00001F80030F80038F80019F0000FF000039
:1019CC00FF8001FFC001FF80001C00000F00003FE2
:1019DC0080003F80003F80003F80003F80001F80E0
:1019EC00001F80018F8003CFC001FF8000FF8000AB
:1019FC00FF8001FFC001FF80000C00000F80003F42
:101A0C0080003F80003F80003F80003F80001FC06F
:101A1C00001FC0018FC001CF8001FF8000FF80003C
:101A2C00FF8000FF8001FF80000E00000F80003F50
:101A3C0080003F80003F80003FC0003FC0001FC0BF
:101A4C00009FC001CFC001CFC001DF8000FF80002C
:101A5C00FF8000FF8000FF80000E00000F80003F21
:101A6C0080003F80003FC0003FC0003FC0001FC04F
:101A7C00009FC001CFC001CFC001CFC000FF8000CC
:101A8C00FF8000FF8000FFC0000E00000F80003FB1
:101A9C0080003F80003FC0003FC0003FC0001FC01F
:101AAC00009FC001CFC001CFC000EFC000FF80007D
:101ABC00FF8000FF8000FFC0000E00001F80003F71
:101ACC0080003FC0003FC0003FC0003FC0001FC0AF
:101ADC00009FC001CFC001CFC000EFC000FF80004D
:101AEC00FF8000FF8000FFE0000E00001F80003F21
:101AFC0080003FC0003FC0003FC0003FC0001FC07F
:101B0C0001DFC001CFC001CFE000EF8000FF8000FB
:101B1C00FF8000FF8000FFE0000F00001F80003FEF
:101B2C0080003FC0003FC0003FC0003FC0001FC04E
:101B3C0000DFC001CFC000CFE000EF80007F80004D
:101B4C00FF8000FF8000FFA0000F00001F80003FFF
:101B5C0080003FC0003FC0003FC0003FC0001FC01E
:101B6C0000DFC001CFE000EFE0006F80007F80005D
:101B7C00FF8000FF8000FFA0000F00001F80003FCF
:101B8C0080003FC0003FC0003FC0003FC0001FC0EE
:101B9C0000DFC000CFE000EFE0007F80007F80001E
:101BAC007F8000FF8000FFA0000700001F80003F27
:101BBC0080003FC0003FC0003FC0003FC0003FC09E
:101BCC0000DFC000CFE000EFE0007F80007F8000EE
:101BDC007F8000FF8000DFA0000700001F80003F17
:101BEC0080003FC0003FC0003FC0003FC0003FC06E
:101BFC0000DFC000CFE000EFE0007F80007F8000BE
:101C0C007F8000FF8000DFA0000700001F80003FE6
:101C1C0080003FC0003FC0003FC0003FC0003FC03D
:101C2C0000DFC000CFE000EFE0007F80007F80008D
:101C3C007F8000FF8000DFA0000700001F80003FB6
:101C4C0080003FC0003FC0003FC0003FC0003FC00D
:101C5C0000DFC000CFE000EFE0007FC0007F80001D
:101C6C007F8000FF8000DFA0000700001F80003F86
:101C7C0080003FC0003FC0003FC0003FC0003FC0DD
:101C8C0000DFC000CFC000EFE0007FC0007F80000D
:101C9C00FF8000FF8000DFA0000F00001F80003FCE
:101CAC0080003FC0003FC0003FC0003FC0003FC0AD
:101CBC0000DFC000CFC000EFE0007FC0007F8000DD
:101CCC00FF8000FF8000DFA0000F00001F80003F9E
:101CDC0080003FC0003FC0003FC0003FC0003FC07D
:101CEC0000DFC000CFC000EFE0007FC0007F8000AD
:101CFC00FF8000FF8000DFA0000F00001F80003F6E
:101D0C0080003FC0003FC0003FC0003FC0001FC06C
:101D1C0000DFC001DFC000EFE0007FC0007F80006B
:101D2C00FF8000FF8000DFA0000F00001F80003F3D
:101D3C0080003FC0003FC0003FC0003FC0003FC01C
:101D4C0000DFC001DFC000EFE0007FC0007F80003B
:101D5C00FF8000FF8000DFA0000E00001F80003F0E
:101D6C0080003FC0003FC0003FC0003FC0003FC0EC
:101D7C0001DFC001DFC000CFC000FFC000FF80004A
:101D8C00FF8000FF8000DFA0000E00001F80003FDE
:101D9C0080003FC0003FC0003FC0003FC0003FC0BC
:101DAC0001DFC001DFC001CFC000FFC000FF800019
:101DBC00FF8000FF8000DFA0000E00001F80003FAE
:101DCC0080003F80003FC0003FC0003FC0003FC0CC
:101DDC0001DFC001DFC001DFC000FFC000FF8000D9
:101DEC00FF8000FF8000DFA0001E00001F80003F6E
:101DFC0080007F80007FC0007FC0003FC0003FC0DC
:101E0C00019FC001DFC001DFC000FFC000FF8000E8
:101E1C00FF8000FF8000DFA0001E00001F80003F3D
:101E2C0080007F80007F80007FC0003FC0003FC0EB
:101E3C00019FC001DFC001DFC000FFC000FF8000B8
:101E4C00FF8000FF8000DFA0001C00001F80007FCF
:101E5C0080007F80007F80007F80003FC0003FC0FB
:101E6C00019FC001DFC001DFC001DF8000FF8000E7
:101E7C00FF8000FF8000FFA0003E00001F00007FDD
:101E8C0080007F80007F80007F80007F80003F800B
:101E9C00019FC001DFC001DFC001DF8000FF8000B7
:101EAC00FF8000FF8000FF80003E00001F00007FCD
:101EBC0080007F80007F80007F80007F80003F80DB
:101ECC0000FF8003FF8003DFC001DF8000FF800084
:101EDC00FF8001FF8001FF80003A00003F00007F7F
:101EEC0080007F80007F80007F80007F80003F80AB
:101EFC00003F8003BF8003CF8003DF8001FF8000A1
:101F0C00FF8001FF8001FF80003E00003F00007F4A
:101F1C0080007F80007F80007F80007F80003F807A
:101F2C00003F80013F8003AF8003BF8003FF800030
:101F3C00FF8001FF8001FF80003E00003F00007F1A
:101F4C0080007F80007F80007F80007F80003F804A
:101F5C00003F80003780033F8003BF8003FF800178
:101F6C00FF8000FF8001FF80007E00003F00007FAB
:101F7C0080007F80007F80007F80007F80003F801A
:101F8C00003F80003780033F8007BF8007BF80037E
:101F9C00FF8000FF8000FF8000FE00007F00007FBC
:101FAC0000007F8000FF8000FF8000FF80007F80AA
:101FBC00003F80003780003F80063F80071F80076E
:101FCC003F8007FF8001FF8001FE0000FE00007FC4
:101FDC000000FF8000FF8000FF8000FF80007F80FA
:101FEC00003F80003F80003F80003F80001F800E3C
:101FFC001F800E3F800FFF8003FC0001FE0000FFDE
:10200C000000FF0000FF8000FF8000FF8000FF80C9
:10201C00003F80003780003F80003F80003F800001
:10202C001F800C1FC01E1FC001BC0003FE0001FE60
:10203C000000FF0000FF0001FF8000FF8000FF8018
:10204C00007F80003780001F80000F80001F800001
:10205C001FC0001FC0001FA000180003FE0003FEDD
:10206C000001FF0000FF0000FF8000FF8000FF80E8
:10207C00007F80003F80001780001F80000F8000D1
:10208C001FC0001FE0001FE0000000000E0001FE5A
:10209C000001FF0000FF8000FF8000FF8000FF8038
:1020AC00007F80003F800037C00007800007C00021
:1020BC000FC0000FC0000FE0000000000000007F08
:1020CC0000007F80007F80007F80007F80007F8009
:1020DC00007F80003FC0003F800037C00023C0005D
:1020EC0007E00007E00007F0000000000000001F00
:1020FC0080001F80001FC0003FC0003FC0003FC0D9
:10210C00003FC0001FC0001FC00013C00033E00020
:10211C0023F00003F00003F00000000000000007B3
:10212C00000007C0000FE0001FE0001FF0001FF0D0
:10213C00001FF0000FF0000FE00009E00009E000C4
:10214C0001F00001F00001F00000000000C00000F0
:10215C00F00003F00007F0000FF0000FF00007F0A4
:10216C000007F00007F00003F00006F00004F00098
:10217C0004F00000F00000F00000300000700001DE
:10218C00F00003F00003F00003F00003F00001F096
:10219C000001F00001F00001F00000F00000F00080
:1021AC0000F00000F00000F00000000000700000E3
:1021BC00F00001F00001F00001F00000F00000F070
:1021CC000000F00000F00000F00000F00000F00053
:1021DC0000F00000F00000F00000000000300000F3
:1021EC007000007000007000007000007000007043
:1021FC000000700000700000700001F00003F0009F
:10220C0007F0001FF0003FF000000000001000007D
:10221C003000007000007000007000007000003092
:10222C001800701DE7F01DFFF01DFFF001F9F00123
:10223C00FDF001FDF001FFF007C00000600000F0B0
:10224C001000F03003F87007FC700FFEF00FFFF079
:10225C000FFFF007F5F003F1F001F1F00061F00071
:10226C0003F00003F00003F000000000040000067F
:10227C000001060001860001C60001FE0001FE00FF
:10228C0001FE1001FE1001FF3000FFF000FFF00016
:10229C0031F00000F00000F0000000000000000031
:1022AC000000000000000000000000000000000022
:1022BC00000000000000000500000F00000F0000EF
:1022CC001F00003F00003F800000000000000000E5
:1022DC0000000000000000000000000000000000F2
:1022EC0000000000000000000000000000000000E2
:1022FC00000000000000000001C000000000000011
:10230C0000000000000000000000000000000000C1
:10231C0000000000000000000000000000000000B1
:10232C00000000000000000001E00000C000000000
:10233C000000000000000000000000000000000091
:10234C000000000000000000000000000000000081
:10235C00000000000000000000E00000E00000E0D1
:10236C000000C000000000000000000000000000A1
:10237C000000000000000000000000000000000051
:10238C00000000000000000000000000E00000E081
:10239C000000E00000E00000400000000000000031
:1023AC000000000000000000000000000000000021
:1023BC0000000000000000000000000000000060B1
:1023CC000000F00000F00000F000006000000000D1
:1023DC0000000000000000000000000000000000F1
:1023EC0000000000000000000000000000000000E1
:1023FC000000600000700000F00000F000007000B1
:10240C0000000000000000000000000000000000C0
:10241C0000000000000000000000000000000000B0
:10242C000000000000000000F00000F00000F800C8
:10243C000070000000000000000000000000000020
:10244C000000000000000000000000000000000080
:10245C000000000000000000000000700000780088
:10246C000078000070000000000000000000000078
:10247C000000000000000000000000000000000050
:10248C0000000000000000000000000000007800C8
:10249C0000F80000F80000700000000000000000D0
:1024AC000000000000000000000000000000000020
:1024BC0000000000000000000000000000003800D8
:1024CC000078000078000078000070000000000028
:1024DC0000000000000000000000000000000000F0
:1024EC0000000000000000000000000000000000E0
:1024FC0000780000780000780000780000300000C0
:10250C0000000000000000000000000000000000BF
:10251C0000000000000000000000000000000000AF
:10252C00003000007800007C00007C000078000087
:10253C00000000000000000000000000000000008F
:10254C00000000000000000000000000000000007F
:10255C00003000007800007C00007800007800005B
:10256C0070000000000000000000000000000000EF
:10257C00000000000000000000000000000000004F
:10258C00003000007800007800007800007800002F
:10259C0078000000000000000000000000000000B7
:1025AC00000000000000000000000000000000001F
:1025BC00003000007800007800007C0000780000FB
:1025CC00700000000000000000000000000000008F
:1025DC0000000000000000000000000000000000EF
:1025EC00007800007C00007C00007800007800007F
:1025FC0000000000000000000000000000000000CF
:10260C00000000000000000000000000000020009E
:10261C00007800007800007800007800007000005E
:10262C00000000000000000000000000000000009E
:10263C000000000000000000000000000000780016
:10264C0000F80000FC0000F8000070000000000022
:10265C00000000000000000000000000000000006E
:10266C000000000000000000000000700000F800F6
:10267C0000F8000078000078000000000000000066
:10268C00000000000000000000000000000000003E
:10269C000000000000000000300000F80000F8000E
:1026AC0000F80000F80000600000000000000000CE
:1026BC00000000000000000000000000000000000E
:1026CC000000000000200000F00000F80000F800FE
:1026DC0000F8000070000000000000000000000086
:1026EC0000000000000000000000000000000000DE
:1026FC000000000000700000F80000F80000F80076
:10270C0000F80000000000000000000000000000C5
:10271C0000000000000000000000000000000000AD
:10272C000000000000700000F80000F80000F80045
:10273C0000F000000000000000000000000000009D
:10274C00000000000000000000000000000000007D
:10275C000000000000700000F80000F80000F80015
:10276C0000F000000000000000000000000000006D
:10277C00000000000000000000000000000000004D
:10278C000000000000700000F80000FC0000F800E1
:10279C0000F8000000000000000000000000000035
:1027AC00000000000000000000000000000000001D
:1027BC000000000000700000F80000F80000FC00B1
:1027CC0000F80000600000000000000000000000A5
:1027DC0000000000000000000000000000000000ED
:1027EC000000000000700000F80000FC0000FC007D
:1027FC0000F8000070000000000000000000000065
:10280C0000000000000000000000000000000000BC
:10281C000000000000000000780000FC0000FC003C
:10282C00007C0000780000000000000000000000A8
:10283C00000000000000000000000000000000008C
:10284C0000000000000000007800007C0000FC008C
:10285C0000FC0000780000100000000000000000E8
:10286C00000000000000000000000000000000005C
:10287C0000000000000000007000007C00007E00E2
:10288C00007C00007C000030000000000000000014
:10289C00000000000000000000000000000000002C
:1028AC0000000000000000001000007C00007C0014
:1028BC00007E00007C00007800000000000000009A
:1028CC0000000000000000000000000000000000FC
:1028DC0000000000000000000000007C00007E00F2
:1028EC00007E00007C00007C000010000000000056
:1028FC0000000000000000000000000000000000CC
:10290C0000000000000000000000003C00007C0003
:10291C00007E00007E00007C00001800000000001B
:10292C00000000000000000000000000000000009B
:10293C0000000000000000000000007800007C0097
:10294C00007E00007E00007C0000200000000000E3
:10295C00000000000000000000000000000000006B
:10296C0000000000000000000000007800007C0067
:10297C00007E00007C0000780000300000000000A9
:10298C00000000000000000000000000000000003B
:10299C0000000000000000000000007800007C0037
:1029AC00007C00007C00007C00003800000000006F
:1029BC00000000000000000000000000000000000B
:1029CC0000000000000000000000007800007C0007
:1029DC0000FC0000FC00007C000030000000000047
:1029EC00000000000000000000FFF00000000000EC
:1029FC0000000000000000000000007800007C00D7
:102A0C0000FC0000FC0000780000700000000000DA
:102A1C000000000000000000FFFFF0FFFFF0800747
:102A2C00F0000FF00007F000003000303000F830FC
:102A3C0000FC1000FC00007800007000000000009A
:102A4C000000000000000000FDC000FF0000FF00BF
:102A5C0000FFCC00FFDF00FFCF90FF8FB0FF07F02F
:102A6C00FF03F0FF03F0FF03F0FF87F0FFFFF0FF21
:102A7C00FFF0FFFFF0FFFFF0FDC000FF0000FF00C4
:102A8C0000FFCC00FFDF00FFCF90FF8FB0FF07F0FF
:102A9C00FF03F0FF03F0FF03F0FF87F0FFFFF0FFF1
:102AAC00FFF0FFFFF0FFFFF0FDC000FF0000FF0094
:102ABC0000FFCC00FFDF00FFCF90FF8FB0FF07F0CF
:102ACC00FF03F0FF03F0FF03F0FF87F0FFFFF0FFC1
:102ADC00FFF0FFFFF0FFFFF0FDC000FF0000FF0064
:102AEC0000FFCC00FFDF00FFCF90FF8FB0FF07F09F
:102AFC00FF03F0FF03F0FF03F0FF87F0FFFFF0FF91
:102B0C00FFF0FFFFF0FFFFF0FDC000FF0000FF0033
:102B1C0000FFCC00FFDF00FFCF90FF8FB0FF07F06E
:102B2C00FF03F0FF03F0FF03F0FF87F0FFFFF0FF60
:102B3C00FFF0FFFFF0FFFFF0FDC000FF0000FF0003
:102B4C0000FFCC00FFDF00FFCF90FF8FB0FF07F03E
:102B5C00FF03F0FF03F0FF03F0FF87F0FFFFF0FF30
:102B6C00FFF0FFFFF0FFFFF0FDC000FF0000FF00D3
:102B7C0000FFCC00FFDF00FFCF90FF8FB0FF07F00E
:102B8C00FF03F0FF03F0FF03F0FF87F0FFFFF0FF00
:102B9C00FFF0FFFFF0FFFFF0C00000F80000FC00AA
:102BAC0000FE0000FF0010FC0030FC00F0FC00F008
:102BBC00FC07F0FC07F0FE0FF0FFFFF0FFFFF0FF4B
:102BCC00FFF0FFFFF0FFFFF08000000000000000AE
:102BDC0000F00000E000008001C00001F001C3F033
:102BEC0001FFF001FFF083FFF0CFFFF0FFFFF0FFDC
:102BFC00FFF0FFFFF0FFFFF0000770000020200047
:102C0C0000000000000000000000000000000000B8
:102C1C00FB1FC0FF9FF0FFFFF0FFFFF0FFFFF0FF77
:102C2C00FFF0FFFFF0FFFFF010FFF0007FF0007FE0
:102C3C00F0007FF0005F00000000000000000000CA
:102C4C0000000000000000F000FCFF00FEFFF0FFA1
:102C5C00FFF0FFFFF0FFFFF0FFFFF0E7FFF0E7FFF3
:102C6C00F047FFF003FFF0033FF0013E700100005E
:102C7C00000000000000000000000000008000E0E8
:102C8C00FC00F7FFD0FFFFF07FFFF03FFFF0DFFF0E
:102C9C00F09FFFF01FFFF00FFFF007FFF007FFF0B2
:102CAC000000700000300000100000100000000355
:102CBC00800087F870FFFF70FFFFF07FFFF01FFFB1
:102CCC00F01FFFF01FFFF00FFFF007FFF003FFF006
:102CDC0000007000007000000000001000001006E2
:102CEC00003007E030DFFE701FFFF01FFFF01FFF0A
:102CFC00F00FFFF04FFFF007FFF003FFF001FFF0C4
:102D0C000200300000100000000000000000000075
:102D1C00000001C000C3FC3007FFF003FFF003FF0D
:102D2C00F001FFF001FFF001FFF000FFF000FFF0F9
:102D3C00011F100000000000000000000000000057
:102D4C000000000000003000003FF0003FF0001FCA
:102D5C00F00017F0013FF0003FF0003FF0003FF0B3
:102D6C000001F02008C0600000000000000000001E
:102D7C000000000000000000C001F0E00070F00650
:102D8C0070F003F0F00FF06007F06003F00001F05A
:102D9C008001F0C00070E40100CC0000880000004D
:102DAC000000000000E00000F80020FC0000FF0024
:102DBC00B0FF0070C700F0860070C20670E3001010
:102DCC00F80010FC0010FC4000FCC030F98000F151
:102DDC000000000000000000FE0000FF0000FF806B
:102DEC0000FFC000F9C000F0C030F8C030FC80908B
:102DFC00FE0000FF0000FF8000FF9000FF3000FF8E
:102E0C002000FE4000000000FF0000FF8000FFC01B
:102E1C0000FFE000FFF000FE7000FC6010FC6000A2
:102E2C00FF0040FF8000FFC000FFCC00FFDC00FF74
:102E3C00D800FFB800FF2000FE0000FF8000FFE07C
:102E4C0000FFE000FFF800FF3800FE3800FE3010F5
:102E5C00FF9010FFC000FFE000FFF200FFE600FF54
:102E6C00EE00FFCE00FFDC00FF0000FF8000FFE063
:102E7C0000FFE000FFF000FFFC00FF1C00FF18004B
:102E8C00FF8800FFC000FFE000FFF000FFF100FF33
:102E9C00F300FFE700FFEF00FF0000FF8000FFC022
:102EAC0000FFE000FFF000FFF800FF1C00FF1C001B
:102EBC00FF1800FFC800FFE000FFF000FFF000FF6C
:102ECC00F900FFF300FFE780FE0000FF0000FFC0E9
:102EDC0000FFE000FFE000FFF000FF9C00FF1C0083
:102EEC00FF1C00FFC800FFE000FFE000FFF000FF48
:102EFC00F000FFF100FFF380FC0000FE0000FF007B
:102F0C0000FF8000FFE000FFF000FFF000FF1C005E
:102F1C00FF1C00FF0C00FFC800FFE000FFE000FFFB
:102F2C00F000FFF000FFF300F80010FC0000FE00C2
:102F3C0000FF8000FFC000FFE000FFE000FF180072
:102F4C00FF1C00FF1C00FFC800FFC000FFE000FFDB
:102F5C00E000FFE000FFF000F80000FC0010FE00B5
:102F6C0000FF8000FFC000FFE000FFF000FF180032
:102F7C00FF1C00FF1C00FFCC00FFC800FFE000FF9F
:102F8C00E000FFE000FFE000FC0000FE0010FF008E
:102F9C0000FF8000FFC000FFE000FFE000FF8000AA
:102FAC00FF1C00FF1C00FF8C00FFC800FFE000FFAF
:102FBC00E000FFE000FFE000FC0000FE0000FF006E
:102FCC0010FF8000FFC000FFE000FFE000FF80006A
:102FDC00FF0C00FF0C00FF8C00FFE800FFE000FF7F
:102FEC00E000FFE000FFE000FC0000FE0000FE003F
:102FFC0000FF8000FFC000FFC000FFE000FFE0000A
:10300C00FF8400FF8C00FF8800FFE000FFE000FF62
:10301C00E000FFE000FFE000FC3000FC0000FE00E0
:10302C0000FF0010FF8000FFC000FFC000FFC000C9
:10303C00FF8000FF8800FF8800FFC000FFE000FF5A
:10304C00E000FFF000FFF000F83800FC0000FC008E
:10305C0000FE0010FF8010FFC000FFC000FFE0006A
:10306C00FFC000FF8000FF8C00FF8000FFF000FF1E
:10307C00F000FFF000FFF000FC7000F06000F800C2
:10308C0000FC0030FE0030FF0000FFC000FFC0005D
:10309C00FFC000FF8000FF8800FF8000FFF000FFF2
:1030AC00F000FFF000FFF000F87010FC6000F04042
:1030BC0000F00060F80030FC0000FF0000FF800012
:1030CC00FFC000FF8000FF8800FF8000FFF000FFC2
:1030DC00F000FFF000FFF000F9E030F84010F8C00D
:1030EC0000FC0060F00070F80000FC0000FF8000A5
:1030FC00FFC000FFC800FF8800FF8000FFF000FF4A
:10310C00F010FFF010FFF000FFF070FBE030F0C0AB
:10311C0000F08040F80070F80010FC0000FF000088
:10312C00FFC000FF8000FF8800FF8000FFE010FF61
:10313C00E030FFF010FFF010FFF9F0FFE070FFC07F
:10314C0030F080C0F000F0F80030FC0000FF000010
:10315C00FFC000FF8000FF8000FF8000FFE010FF39
:10316C00E000FFE020FFE000FFFFF0FFE0F0FFC019
:10317C0070FC0010F800F0F800F0FC0010FF80006C
:10318C00FFC000FF8000FF9000FFE000FFE000FFA9
:10319C00E040FFE000FFE000FFFFF0FFF1F0FF4038
:1031AC0070FE4070F801F0FC00F0FE0010FFC01043
:1031BC00FF8000FF9000FF8000FFC050FFC050FF59
:1031CC00C000FFE800FFCC00FFFFF0FFFFF0FFE1C5
:1031DC00F0FC4070FC01F0FC01F0FF8030FFC030CF
:1031EC00FF8010FF8000FFC0F0FFC080FFC000FF19
:1031FC00E800FFC800FFD800FFFFF0FFFFF0FFE37F
:10320C00F0FE41F0FC02F0FE03F0FF8070FF8070D6
:10321C00FFA030FFC050FFC170FFC010FFC010FFF7
:10322C00D800FFD0301F8000FFFFF0FFFFF0FFFF42
:10323C00F0FF03F0FE07F0FF03F0FFC0F0FFC0F05B
:10324C00FF8070FFC070FFC070FFD070FFD000FF18
:10325C00E020000000000000FFFFF0FFFFF0FFFF88
:10326C00F0FF03F0FE05F0FF03F0FFC0F0FFA0F04D
:10327C00FFC1F0FFC0F0FFC070FFD0103FE00000B6
:10328C000000A78000FBC000FFFFF0FFFFF0FFFF76
:10329C00F0FF07F0FF01F0FF87F0FF81F0FF81F0F6
:1032AC00FFC5F0FFC0F0FFF0303FE000800000FBF6
:1032BC00C000FDF800FFF8F0FFFFF0FFFFF0FFFF8C
:1032CC00F0FFC7F0FF0BF0FF87F0FFC3F0FF83F0B8
:1032DC00FFC3F0FFE0F0FFE000C00000F98000FF4A
:1032EC00F980FFFDF0FFFFF0FFFFF0FFFFF0FFFFA5
:1032FC00F0FF4FF0FF0BF0FF87F0FFC3F0FFC1F0C2
:10330C00FFC1F0FFE3D0C00000FCC000FFF300FFE2
:10331C00FFF0FFFFF0FFFFF0FFFFF0FFFFF0FFFFFC
:10332C00F0FF8FF0FF0FF0FFC7F0FFC3F0FFCFF0FF
:10333C00FFE1F0EFC000F90000FFD200FFF3E0FF67
:10334C00FFF0FFFFF0FFFFF0FFFFF0FFFFF0FFFFCC
:10335C00F0FF9FF0FF87F0FFC7F0FFC3F0FFC7F04F
:10336C00FFE3F0F00010FF8000FFF790FFFFF0FF8D
:10337C00FFF0FFFFF0FFFFF0FFFFF0FFFFF0FFFF9C
:10338C00F0FFBFF0FF97F0FFC7F0FFC3F0FFC7F0EF
:10339C00FFC030FD0010FFF610FFFFF0FFFFF0FF45
:1033AC00FFF0FFFFF0FFFFF0FFFFF0FFFFF0FFFF6C
:1033BC00F0FFBFF0FF97F0FFC7F0FFC7F0FFC7F0BB
:1033CC00F9E070FEC030FFF730FFFFF0FFFFF0FFB9
:1033DC00FFF0FFFFF0FFFFF0FFFFF0FFFFF0FFFF3C
:1033EC00F0FFFFF0FF9FF0FFCFF0FFC7F0FFC7F03B
:1033FC00FC0070FFE430FFFFF0FFFFF0FFFFF0FF79
:10340C00FFF0FFFFF0FFFFF0FFFFF0FFFFF0FFFF0B
:10341C00F0FFFFF0FF8FF0FFCFF0FFC7F0FFC7F01A
:10342C00FFC070FFEE70FFFFF0FFFFF0FFFFF0FF3B
:10343C00FFF0FFFFF0FFFFF0FFFFF0FFFFF0FFFFDB
:10344C00F0FFFFF0FF8FF0FFCFF0FFCFF0FFC7F0E2
:10345C00FFE070FFFFF0FFFFF0FFFFF0FFFFF0FF5A
:10346C00FFF0FFFFF0FFFFF0FFFFF0FFFFF0FFFFAB
:10347C00F0FFFFF0FF8FF0FFCFF0FFCFF0FF83F0F6
:10348C00FFE4F0FFFFF0FFFFF0FFFFF0FFFFF0FFA6
:10349C00FFF0FFFFF0FFFFF0FFFFF0FFFFF0FFFF7B
:1034AC00F0FFFFF0FF8FF0FFCFF0FFCFF0FFC7F082
:1034BC00FFEDF0FFFFF0FFFFF0FFFFF0FFFFF0FF6D
:1034CC00FFF0FFFFF0FFFFF0FFFFF0FFFFF0FFFF4B
:1034DC00F0FFFFF0FFCFF0FFCFF0FFCFF0FFC5F014
:1034EC00FFFFF0FFFFF0FFFFF0FFFFF0FFFFF0FF2B
:1034FC00FFF0FFFFF0FFFFF0FFFFF0FFFFF0FFFF1B
:10350C00F0FFFFF0FFCFF0FFCFF0FFCFF0FFC1F0E7
:10351C00FFFFF0FFFFF0FFFFF0FFFFF0FFFFF0FFFA
:10352C00FFF0FFFFF0FFFFF0FFFFF0FFFFF0FFFFEA
:10353C00F0FFFFF0FFCFF0FFCFF0FFCFF0FDC1F0B9
:10354C00FFFFF0FFFFF0FFFFF0FFFFF0FFFFF0FFCA
:10355C00FFF0FFFFF0FFFFF0FFFFF0FFFFF0FFFFBA
:10356C00F0FFFFF0FFCFF0FFCFF0FFCFF0FDC1F089
:10357C00FFFFF0FFFFF0FFFFF0FFFFF0FFFFF0FF9A
:10358C00FFF0FFFFF0FFFFF0FFFFF0FFFFF0FFFF8A
:10359C00F0FFFFF0FFCFF0FFCFF0FFCFF0FDC1F059
:1035AC00FFFFF0FFFFF0FFFFF0FFFFF0FFFFF0FF6A
:1035BC00FFF0FFFFF0FFFFF0FFFFF0FFFFF0FFFF5A
:1035CC00F0FFFFF0FFCFF0FFCFF0FFCFF0FDE1F009
:1035DC00FFFFF0FFFFF0FFFFF0FFFFF0FFFFF0FF3A
:1035EC00FFF0FFFFF0FFFFF0FFFFF0FFFFF0FFFF2A
:1035FC00F0FFFFF0FFCFF0FFCFF0FFCFF0FDE1F0D9
:10360C00FFFFF0FFFFF0FFFFF0FFFFF0FFFFF0FF09
:10361C00FFF0FFFFF0FFFFF0FFFFF0FFFFF0FFFFF9
:10362C00F0FFFFF0FFCFF0FFCFF0FFCFF0FDE1F0A8
:10363C00FFFFF0FFFFF0FFFFF0FFFFF0FFFFF0FFD9
:10364C00FFF0FFFFF0FFFFF0FFFFF0FFFFF0FFFFC9
:10365C00F0FFFFF0FFDFF0FFCFF0FFCFF0FCE1F069
:10366C00FFFFF0FFFFF0FFFFF0FFFFF0FFFFF0FFA9
:10367C00FFF0FFFFF0FFFFF0FFFFF0FFFFF0FFFF99
:10368C00F0FFFFF0FFDFF0FFCFF0FF8FF0FCC1F099
:10369C00FFFFF0FFFFF0FFFFF0FFFFF0FFFFF0FF79
:1036AC00FFF0FFFFF0FFFFF0FFFFF0FFFFF0FFFF69
:1036BC00F0FFBFF0FFDFF0FFCFF0FF8FF0FC01F069
:1036CC00FFFFF0FFFFF0FFFFF0FFFFF0FFFFF0FF49
:1036DC00FFF0FFFFF0FFFFF0FFFFF0FFFFF0FFFF39
:1036EC00F0FF9FF0FF9FF0FFCFF0FF8FF0FC01F099
:1036FC00FFFFF0FFFFF0FFFFF0FFFFF0FFFFF0FF19
:10370C00FFF0FFFFF0FFFFF0FFFFF0FFFFF0FFFF08
:10371C00F0FF9FF0FF9FF0FFCFF0FF8FF0FE01F066
:10372C00FFFFF0FFFFF0FFFFF0FFFFF0FFFFF0FFE8
:10373C00FFF0FFFFF0FFFFF0FFFFF0FFFFF0FFFFD8
:10374C00F0FF9FF0FF9FF0FFCFF0FFCFF0FE01F0F6
:10375C00FFFFF0FFFFF0FFFFF0FFFFF0FFFFF0FFB8
:10376C00FFF0FFFFF0FFFFF0FFFFF0FFFFF0FFFFA8
:10377C00F0FF9FF0FF9FF0FFCFF0FFCFF0FE01F0C6
:10378C00FFFFF0FFFFF0FFFFF0FFFFF0FFFFF0FF88
:10379C00FFF0FFFFF0FFFFF0FFFFF0FFFFF0FFFF78
:1037AC00F0FF9FF0FF9FF0FFDFF0FFCFF0FC01F088
:1037BC00FFFFF0FFFFF0FFFFF0FFFFF0FFFFF0FF58
:1037CC00FFF0FFFFF0FFFFF0FFFFF0FFFFF0FFFF48
:1037DC00F0FF9FF0FF9FF0FFDFF0FFCFF0FC01F058
:1037EC00FFFFF0FFFFF0FFFFF0FFFFF0FFFFF0FF28
:1037FC00FFF0FFFFF0FFFFF0FFFFF0FFFFF0FFFF18
:10380C00F0FF9FF0FF9FF0FFDFF0FFCFF0FC01F027
:10381C00FFFFF0FFFFF0FFFFF0FFFFF0FFFFF0FFF7
:10382C00FFF0FFFFF0FFFFF0FFFFF0FFFFF0FFFFE7
:10383C00F0FF9FF0FF9FF0FFDFF0FFCFF0FC01F0F7
:10384C00FFFFF0FFFFF0FFFFF0FFFFF0FFFFF0FFC7
:10385C00FFF0FFFFF0FFFFF0FFFFF0FFFFF0FFFFB7
:10386C00F0FFFFF0FF9FF0FF9FF0FFCFF0FC01F0A7
:10387C00FFFFF0FFFFF0FFFFF0FFFFF0FFFFF0FF97
:10388C00FFF0FFFFF0FFFFF0FFFFF0FFFFF0FFFF87
:10389C00F0FFFFF0FF9FF0FF8FF0FF8FF0FDC1F006
:1038AC00FFFFF0FFFFF0FFFFF0FFFFF0FFFFF0FF67
:1038BC00FFF0FFFFF0FFFFF0FFFFF0FFFFF0FFFF57
:1038CC00F0FFFFF0FF9FF0FF8FF0FFDFF0FDC1F086
:1038DC00FFFFF0FFFFF0FFFFF0FFFFF0FFFFF0FF37
:1038EC00FFF0FFFFF0FFFFF0FFFFF0FFFFF0FFFF27
:1038FC00F0FFFFF0FF9FF0FF9FF0FFDFF0FFC1F044
:10390C00FFFFF0FFFFF0FFFFF0FFFFF0FFFFF0FF06
:10391C00FFF0FFFFF0FFFFF0FFFFF0FFFFF0FFFFF6
:10392C00F0FFFFF0FF9FF0FFDFF0FFDFF0FFC9F0CB
:10393C00FFFFF0FFFFF0FFFFF0FFFFF0FFFFF0FFD6
:10394C00FFF0FFFFF0FFFFF0FFFFF0FFFFF0FFFFC6
:10395C00F0FFFFF0FFDFF0FFDFF0FFFFF0FFC7F03D
:10396C00FFCDF0FFFFF0FFFFF0FFFFF0FFFFF0FFD8
:10397C00FFF0FFFFF0FFFFF0FFFFF0FFFFF0FFFF96
:10398C00F0FFFFF0FF9FF0FFDFF0FFDFF0FFC7F06D
:10399C00FFCFF0FFFFF0FFFFF0FFFFF0FFFFF0FFA6
:1039AC00FFF0FFFFF0FFFFF0FFFFF0FFFFF0FFFF66
:1039BC00F0FFFFF0FF9FF0FFDFF0FFCFF0FFC7F04D
:1039CC00FFCDF0FFFFF0FFFFF0FFFFF0FFFFF0FF78
:1039DC00FFF0FFFFF0FFFFF0FFFFF0FFFFF0FFFF36
:1039EC00F0FFFFF0FF9FF0FFDFF0FFDFF0FFC7F00D
:1039FC00FFCDF0FFFFF0FFFFF0FFFFF0FFFFF0FF48
:103A0C00FFF0FFFFF0FFFFF0FFFFF0FFFFF0FFFF05
:103A1C00F0FFFFF0FF9FF0FFDFF0FFCFF0FFC7F0EC
:103A2C00FFCDF0FFFFF0FFFFF0FFFFF0FFFFF0FF17
:103A3C00FFF0FFFFF0FFFFF0FFFFF0FFFFF0FFFFD5
:103A4C00F0FFFFF0FF9FF0FFDFF0FFCFF0FFC7F0BC
:103A5C00FFCDF0FFFFF0FFFFF0FFFFF0FFFFF0FFE7
:103A6C00FFF0FFFFF0FFFFF0FFFFF0FFFFF0FFFFA5
:103A7C00F0FFFFF0FF9FF0FFDFF0FFCFF0FFC7F08C
:103A8C00FFCDF0FFFFF0FFFFF0FFFFF0FFFFF0FFB7
:103A9C00FFF0FFFFF0FFFFF0FFFFF0FFFFF0FFFF75
:103AAC00F0FFFFF0FF9FF0FFDFF0FFFFF0FFC7F02C
:103ABC00FFCDF0FFFFF0FFFFF0FFFFF0FFFFF0FF87
:103ACC00FFF0FFFFF0FFFFF0FFFFF0FFFFF0FFFF45
:103ADC00F0FFFFF0FF9FF0FFDFF0FFDFF0FFC7F01C
:103AEC00FFFDF0FFFFF0FFFFF0FFFFF0FFFFF0FF27
:103AFC00FFF0FFFFF0FFFFF0FFFFF0FFFFF0FFFF15
:103B0C00F0FFFFF0FF9FF0FFDFF0FFDFF0FFCFF0E3
:103B1C00FFFFF0FFFFF0FFFFF0FFFFF0FFFFF0FFF4
:103B2C00FFF0FFFFF0FFFFF0FFFFF0FFFFF0FFFFE4
:103B3C00F0FFFFF0FF9FF0FFCFF0FFCFF0FFC1F0E1
:103B4C00FFFDF0FFFFF0FFFFF0FFFFF0FFFFF0FFC6
:103B5C00FFF0FFFFF0FFFFF0FFFFF0FFFFF0FFFFB4
:103B6C00F0FFFFF0FF9FF0FFCFF0FFCFF0FFC1F0B1
:103B7C00FFFFF0FFFFF0FFFFF0FFFFF0FFFFF0FF94
:103B8C00FFF0FFFFF0FFFFF0FFFFF0FFFFF0FFFF84
:103B9C00F0FFFFF0FFDFF0FFCFF0FFCFF0FDE1F023
:103BAC00FFFFF0FFFFF0FFFFF0FFFFF0FFFFF0FF64
:103BBC00FFF0FFFFF0FFFFF0FFFFF0FFFFF0FFFF54
:103BCC00F0FFFFF0FFCFF0FFCFF0FFCFF0FDE1F003
:103BDC00FFFFF0FFFFF0FFFFF0FFFFF0FFFFF0FF34
:103BEC00FFF0FFFFF0FFFFF0FFFFF0FFFFF0FFFF24
:103BFC00F0FFFFF0FFDFF0FFCFF0FFCFF0FC61F044
:103C0C00FFFFF0FFFFF0FFFFF0FFFFF0FFFFF0FF03
:103C1C00FFF0FFFFF0FFFFF0FFFFF0FFFFF0FFFFF3
:103C2C00F0FF9FF0FFDFF0FFCFF0FFCFF0FE01F0D1
:103C3C00FFFFF0FFFFF0FFFFF0FFFFF0FFFFF0FFD3
:103C4C00FFF0FFFFF0FFFFF0FFFFF0FFFFF0FFFFC3
:103C5C00F0FFDFF0FFDFF0FFCFF0FFC7F0FE01F069
:103C6C00FFFFF0FFFFF0FFFFF0FFFFF0FFFFF0FFA3
:103C7C00FFF0FFFFF0FFFFF0FFFFF0FFFFF0FFFF93
:103C8C00F0FFDFF0FFDFF0FFCFF0FFC7F0FE01F039
:103C9C00FFFFF0FFFFF0FFFFF0FFFFF0FFFFF0FF73
:103CAC00FFF0FFFFF0FFFFF0FFFFF0FFFFF0FFFF63
:103CBC00F0FFCFF0FFCFF0FFEFF0FFC3F0FE00F00E
:103CCC00FFFFF0FFFFF0FFFFF0FFFFF0FFFFF0FF43
:103CDC00FFF0FFFFF0FFFFF0FFFFF0FFFFF0FFFF33
:103CEC00F0FFE7F0FFE7F0FFE7F0FFE3F0FF007015
:103CFC00FFFFF0FFFFF0FFFFF0FFFFF0FFFFF0FF13
:103D0C00FFF0FFFFF0FFFFF0FFFFF0FFFFF0FFFF02
:103D1C00F0FFE3F0FFE3F0FFF3F0FFF1F0FF003012
:103D2C00FFFFF0FFFFF0FFFFF0FFFFF0FFFFF0FFE2
:103D3C00FFF0FFFFF0FFFFF0FFFFF0FFFFF0FFFFD2
:103D4C00F0FFE7F0FFF1F0FFF1F0FFF070FF701003
:103D5C00FFFFF0FFFFF0FFFFF0FFFFF0FFFFF0FFB2
:103D6C00FFF0FFFFF0FFFFF0FFFFF0FFFFF0FFFFA2
:103D7C00F0FFE3F0FFF1F0FFFBF0FFF870FFF00055
:103D8C00FFFFD0FFFFF0FFFFF0FFFFF0FFFFF0FFA2
:103D9C00FFF0FFFFF0FFFFF0FFFFF0FFFFF0FFFF72
:103DAC00F0FFF9F0FFF8F0FFF9F0FFF8F0FFF80082
:103DBC00FFFCC0FFFFF0FFFFF0FFFFF0FFFFF0FF85
:103DCC00FFF0FFFFF0FFFFF0FFFFF0FFFFF0FFFF42
:103DDC00F0FFF9F0FFF8F0FFF8F0FFF870FFDC00EF
:103DEC00FFFC80FFFFF0FFFFF0FFFFF0FFFFF0FF95
:103DFC00FFF0FFFFF0FFFFF0FFFFF0FFFFF0FFFF12
:103E0C00F0FFFCF0FFF8F0FFF870FFF870FFFC001B
:103E1C00FFF800FFFFF0FFFFF0FFFFF0FFFFF0FFE8
:103E2C00FFF0FFFFF0FFFFF0FFFFF0FFFFF0FFFFE1
:103E3C00F0FFFDF0FFF0F0FFF8F0FFF870FFFC0072
:103E4C00FFF800FFFFC0FFFFF0FFFFF0FFFFF0FFE8
:103E5C00FFF0FFFFF0FFFFF0FFFFF0FFFFF0FFFFB1
:103E6C00F0FFFDF0FFF9F0FFF8F0FFF8F0FFFC10A9
:103E7C00FFF800FFFC90FFFFF0FFFFF0FFFFF0FFEB
:103E8C00FFF0FFFFF0FFFFF0FFFFF0FFFFF0FFFF81
:103E9C00F0FFFFF0FFFBF0FFF9F0FFF9F0FFF8F097
:103EAC00FFF810FFFC10FFFFF0DFFFF01FFFF01F0B
:103EBC00FFF01FFFF01FFFF0FFFFF0FFFFF0FFFF11
:103ECC00F0FFFFF0FFFBF0FFF9F0FFF9F0FFF9F066
:103EDC00FFF030FFFA70FFFFF07FFFF007FFF007F5
:103EEC00FFF007FFF007FFF0FFFFF0FFFFF0FFFF11
:103EFC00F0FFFFF0FFFBF0FFF1F0FFF9F0FFF9F03E
:103F0C00FFF870FFF8703FFFF01DFFF001FFF001AC
:103F1C00FFF001FFF001FFF0FFFFF0FFFFF0FFFFEC
:103F2C00F0FFFFF0FFFBF0FFF1F0FFF9F0FFF9F00D
:103F3C00FFF870FFFCF0FFFFF09EFFF082FFF00037
:103F4C00FFF000FFF000FFF0FFFFF0FFFFF0FFFFBE
:103F5C00F0FFFFF0FFFBF0FFF1F0FFF9F0FFF9F0DD
:103F6C00FFF870FFFCF0FFFFF09EFFF080FFF00009
:103F7C00FFF000FFF000FFF0FFFFF0FFFFF0FFFF8E
:103F8C00F0FFFFF0FFFBF0FFF1F0FFF9F0FFF9F0AD
:103F9C00FFF8F0FFFC70FFFFF09EFFF080FFF000D9
:103FAC00FFF000FFF000FFF0FFFFF0FFFFF0FFFF5E
:103FBC00F0FFFFF0FFF3F0FFF1F0FFF3F0FFF9F08B
:103FCC00FFF870FFFCF0FFFFF09EFFF080FFF000A9
:103FDC00FFF000FFF000FFF0FFFFF0FFFFF0FFFF2E
:103FEC00F0FFFFF0FFF3F0FFF1F0FFF3F0FFF9F05B
:103FFC00FFF070FFFCF0FFFFF09EFFF080FFF00081
:10400C00FFF000FFF000FFF0FFFFF0FFFFF0FFFFFD
:10401C00F0FFFFF0FFFBF0FFF1F0FFF3F0FFF8F023
:10402C00FFF4F0FFFFF0FFFFF09EFFF080FFF000C9
:10403C00FFF000FFF000FFF0FFFFF0FFFFF0FFFFCD
:10404C00F0FFFFF0FFF3F0FFF3F0FFF3F0FFF8F0F9
:10405C00FFF4F0FFFFF0FFFFF09EFFF080FFF00099
:10406C00FFF000FFF000FFF0FFFFF0FFFFF0FFFF9D
:10407C00F0FFFFF0FFF3F0FFF3F0FFF1F0FFF8F0CB
:10408C00FFF4F0FFFFF0BFFFF08EFFF080FFF000B9
:10409C00FFF000FFF000FFF0FFFFF0FFFFF0FFFF6D
:1040AC00F0FFFFF0FFF3F0FFF3F0FFF1F0FFF8F09B
:1040BC00FFFCF0FFFFF09FFFF08FFFF081FFF0009F
:1040CC00FFF000FFF000FFF0FFFFF0FFFFF0FFFF3D
:1040DC00F0FFFFF0FFF3F0FFF3F0FFF1F0FFF0F073
:1040EC00FFFCF0FFFFF09FFFF08FFFF081FFF0006F
:1040FC00FFF000FFF000FFF0FFFFF0FFFFF0FFFF0D
:10410C00F0FFFFF0FFF3F0FFF3F0FFF1F0FFF0F042
:10411C00FFFCF0FFFFF09FFFF08F7FF0017FF000BE
:10412C007FF000FFF000FFF0FFFFF0FFFFF0FFFF5C
:10413C00F0FFFFF0FFF3F0FFF3F0FFF1F0FFF0F012
:10414C00FFF4F0FFFFF09FFFF08F7FF0017FF00096
:10415C007FF0007FF0007FF0FFFFF0FFFFF0FFFF2C
:10416C00F0FFFFF0FFF7F0FFF3F0FFF3F0FFF0F0DC
:10417C00FFF7F0FFFFF09FFFF08F7FF0017FF00063
:10418C007FF0007FF0007FF0FFFFF0FFFFF0FFFFFC
:10419C00F0FFFFF0FFF7F0FFF3F0FFF1F0FFF0F0AE
:1041AC00FFF7F0FFFFF09FFFF08F7FF0017FF00033
:1041BC007FF0007FF0007FF0FFFFF0FFFFF0FFFFCC
:1041CC00F0FFFFF0FFF7F0FFF3F0FFF3F0FFF0F07C
:1041DC00FFF4F0FFFFF09FFFF08F7FF0017FF00006
:1041EC007FF0007FF0007FF0FFFFF0FFFFF0FFFF9C
:1041FC00F0FFFFF0FFF7F0FFF3F0FFF3F0FFF0F04C
:10420C00FFF4F0FFFFF09FFFF08F7FF0017FF000D5
:10421C007FF0007FF0007FF0FFFFF0FFFFF0FFFF6B
:10422C00F0FFFFF0FFF7F0FFF3F0FFF3F0FFF0F01B
:10423C00FFF4F0FFFFF09FFFF08F7FF0017FF000A5
:10424C007FF0007FF0007FF0FFFFF0FFFFF0FFFF3B
:10425C00F0FFFFF0FFF7F0FFF3F0FFF7F0FFF0F0E7
:10426C00FFF0F0FFFFF09FFFF08F7FF0017FF00079
:10427C007FF0007FF0007FF0FFFFF0FFFFF0FFFF0B
:10428C00F0FFFFF0FFF7F0FFF3F0FFF7F0FFF1F0B6
:10429C00FFF0F0FFFFF09FFFF08F7FF0017FF00049
:1042AC007FF0007FF0007FF0FFFFF0FFFFF0FFFFDB
:1042BC00F0FFFFF0FFF7F0FFF3F0FFF7F0FFF1F086
:1042CC00FFF0F0FFFFF09FFFF08F7FF0007FF0001A
:1042DC007FF0007FF0007FF0FFFFF0FFFFF0FFFFAB
:1042EC00F0FFFFF0FFF7F0FFF3F0FFF7F0FFF0F057
:1042FC00FFF0F0FFFFF09FFFF08F7FF0007FF000EA
:10430C007FF0007FF0007FF0FFFFF0FFFFF0FFFF7A
:10431C00F0FFFFF0FFF7F0FFF3F0FFF7F0FFF3F023
:10432C00FFF0F0FFFBF09FFFF08F7FF0007FF000BD
:10433C007FF0007FF0007FF0FFFFF0FFFFF0FFFF4A
:10434C00F0FFFFF0FFF7F0FFF3F0FFF3F0FFF3F0F7
:10435C00FFF0F0FFF3F09FFFF08F7FF0007FF00095
:10436C007FF0007FF0007FF0FFFFF0FFFFF0FFFF1A
:10437C00F0FFFFF0FFF7F0FFF3F0FFF3F0FFF3F0C7
:10438C00FFF0F0FFF3F09FFFF08F7FF0007FF00065
:10439C007FF0007FF0007FF0FFFFF0FFFFF0FFFFEA
:1043AC00F0FFFFF0FFF7F0FFF3F0FFF3F0FFF3F097
:1043BC00FFF0F0FFF1F09FFFF08F7FF0007FF00037
:1043CC007FF0007FF0007FF0FFFFF0FFFFF0FFFFBA
:1043DC00F0FFFFF0FFF7F0FFF3F0FFF3F0FFF3F067
:1043EC00FFF1F0FFF0F09FFFF0877FF000FFF0008F
:1043FC007FF0007FF0007FF0FFFFF0FFFFF0FFFF8A
:10440C00F0FFFFF0FFF7F0FFF3F0FFF3F0FFF3F036
:10441C00FFF1F0FFF1F09FFFF09FFFF000BFF00005
:10442C003FF0003FF0007FF0FFFFF0FFFFF0FFFFD9
:10443C00F0FFFFF0FFF7F0FFF3F0FFF3F0FFF3F006
:10444C00FFF1F0FFF1F09FFFF087FFF000BFF000ED
:10445C003FF0003FF0003FF0FFFFF0FFFFF0FFFFE9
:10446C00F0FFFFF0FFF7F0FFF3F0FFF3F0FFF3F0D6
:10447C00FFF0F0FFF1F09FFFF09FFFF000BFF000A6
:10448C003FF0003FF0003FF0FFFFF0FFFFF0FFFFB9
:10449C00F0FFFFF0FFF7F0FFF3F0FFF7F0FFF3F0A2
:1044AC00FFF0F0FFF9F09FFFF09FFFF000BFF0006E
:1044BC003FF0003FF0003FF0FFFFF0FFFFF0FFFF89
:1044CC00F0FFFFF0FFF7F0FFF3F0FFF7F0FFF3F072
:1044DC00FFF0F0FFF9F09FFFF09FFFF000BFF0003E
:1044EC003FF0003FF0003FF0FFFFF0FFFFF0FFFF59
:1044FC00F0FFFFF0FFF7F0FFF3F0FFF7F0FFF3F042
:10450C00FFF0F0FFF9F09FFFF097BFF000BFF00055
:10451C003FF0003FF0003FF0FFFFF0FFFFF0FFFF28
:10452C00F0FFFFF0FFF7F0FFF3F0FFF7F0FFF1F013
:10453C00FFE0F0FFFFF09FFFF097BFF000BFF0002F
:10454C003FF0003FF0003FF0FFFFF0FFFFF0FFFFF8
:10455C00F0FFFFF0FFF7F0FFF3F0FFF7F0FFF1F0E3
:10456C00FFE1F0FFFFF09FFFF097BFF000BFF000FE
:10457C003FF0003FF0003FF0FFFFF0FFFFF0FFFFC8
:10458C00F0FFFFF0FFF7F0FFF3F0FFF7F0FFF1F0B3
:10459C00FFE1F0FFFFF09FFFF097BFF0003FF0004E
:1045AC003FF0003FF0003FF0FFFFF0FFFFF0FFFF98
:1045BC00F0FFFFF0FFF7F0FFF3F0FFF3F0FFF1F087
:1045CC00FFF8F0FFFFF09FFFF097FFF0003FF000C7
:1045DC003FF0003FF0003FF0FFFFF0FFFFF0FFFF68
:1045EC00F0FFFFF0FFF7F0FFF3F0FFF3F0FFF1F057
:1045FC00FFF9F0FFFFF09FFFF097FFF0003FF00096
:10460C003FF0003FF0003FF0FFFFF0FFFFF0FFFF37
:10461C00F0FFFFF0FFE7F0FFF3F0FFF3F0FFF1F036
:10462C00FFFBF0FFFFF09FFFF097FFF0003FF00063
:10463C003FF0003FF0003FF0FFFFF0FFFFF0FFFF07
:10464C00F0FFFFF0FFE7F0FFF3F0FFF3F0FFF1F006
:10465C00FFFBF0FFFFF09FFFF097FFF0003FF00033
:10466C003FF0003FF0003FF0FFFFF0FFFFF0FFFFD7
:10467C00F0FFF7F0FFE7F0FFF3F0FFF3F0FFF1F0DE
:10468C00FFF9F0FFFFF09FFFF09FFFF0803FF0007D
:10469C003FF0003FF0003FF0FFFFF0FFFFF0FFFFA7
:1046AC00F0FFF7F0FFE3F0FFF3F0FFF3F0FFF0F0B3
:1046BC00FFF1F0FFFFF09FFFF09FFFF097FFF0007E
:1046CC007FF0003FF0003FF0FFFFF0FFFFF0FFFF37
:1046DC00F0FFF7F0FFE1F0FFF3F0FFF1F0FFF07007
:1046EC00FFF0F0FFFCF0DFFFF09FFFF087FFF0879B
:1046FC00FFF0003FF0003FF0FFFFF0FFFFF0FFFF87
:10470C00F0FFF3F0FFE1F0FFF3F0FFF1F0FFF870D2
:10471C00FFF070FFFCF0BFFFF0BFFFF01FFFF00FCA
:10472C00FFF00FFFF0003FF0FFFFF0FFFFF0FFFB8B
:10473C00F0FFFBF0FFE1F0FFF9F0FFF0F0FFF830D5
:10474C00FFF030FFF830FFFFF03FFFF03FFFF01FAE
:10475C00FFF01FFFF01FBFF0FFFFF0FFFFF0FFF9AE
:10476C00F0FFF9F0FFF0F0FFF8F0FFF070FFF81039
:10477C00FFF810FFF010FFFA30FFFFF0FFFFF07FA3
:10478C00FFF03FFFF03FFFF0FFFFF0FFFFF0FFFDFA
:10479C00F0FFF870FFF8F0FFF8F0FFF030FFFC00CE
:1047AC00FFF800FFF000FFFC00FFFD20FFFFF0FF13
:1047BC00FFF0FFFFF0FFFFF0FFFFF0FFFCF0FFFC4E
:1047CC00F0FFF030FFFC70FFF870FFF010FFFC0002
:1047DC00FFFC00FFFC00FFF800FFFC00FFFDA0FF4A
:1047EC00FFF0FFFFF0FFFFF0FFFE70FFFE70FFFC1D
:1047FC0070FFF010FFFC10FFF870FFF010FFFE00D0
:10480C00FFFE00FFFC00FFF800FFF800FFFC00FFBC
:10481C00FE80FFFFB0FFFFF0FFFF70FFFE30FFFCDC
:10482C0000FFF800FFFE00FFFC10FFF030FFFE0061
:10483C00FFFF00FFFF00FFFE00FFF800FFFC00FF82
:10484C00FC00FFFF40FFFF60FFFF10FFFE00FFF8C2
:10485C0000FFFB00FFFE00FFFE00FFE400FFEB008B
:10486C00FFFF80FFFF80FFFF80FFFF00FFFC00FFCA
:10487C00FC00FFFE00FFFE00FFFE00FFFC00FFFC43
:10488C0000FFFF80FFFF80FFFE00FFC400FFF80069
:10489C00FFFF80FFFFC0FFFFC0FFFFC0FFFFC0FF97
:1048AC00FF80FFFE00FFFE00FFFE00FFFE00FFFF8B
:1048BC00C0FFFFE0FFFFC0FFFF00FF8600FF80008E
:1048CC00FF9FC0FFFFE0FFFFE0FFFFF0FFFFF0FFE7
:1048DC00FFF0FFFFF0FFFF70FFFE00FFFF00FFFF88
:1048EC00F0FFFFF0FFFFF0FFFF80FF8F00FE4000A6
:1048FC00FFB0C0FFBFF0FFBFF0FFFFF0FFFFF0FF06
:10490C00FFF0FFFFF0FFFFF0FFFE00FFFF70FFFF67
:10491C00F0FFFFF0FFFFC0FFFF80FF0F00FE600005
:10492C00FF38E0FF3FF0FF3FF0FFFFF0FFFFF0FF2D
:10493C00FFF0FFFFF0FFFFF0FFFF00FFFFF0FFFFB6
:10494C00F0FFFFF0FFFFC0FFFF80FF0F00FE000035
:10495C00FF3880FF3FF0FF3FF0FFFFF0FFFFF0FF5D
:10496C00FFF0FFFFF0FFFFF0FFFF00FFFFF0FFFF86
:10497C00F0FFFFF0FFFFC0FFFFC0FF8F00FE000045
:10498C00FE3840FF3FF0FFBFF0FFFFF0FFFFF0FFEE
:10499C00FFF0FFFFF0FFFFF0FFFF00FFFFF0FFFF56
:1049AC00F0FFFFF0FFFFE0FFFFC0FF0780FF1000EC
:1049BC00FF3800FF3FF0FFBFF0FFFFF0FFFFF0FFFD
:1049CC00FFF0FFFFF0FFFFF0FFFF90FFFFF0FFFF96
:1049DC00F0FFFFF0FFFFE0FFFFE0FF8780FF00002C
:1049EC00FF3800FFBFF0FFBFF0FFBFF0FFFFF0FF8D
:1049FC00FFF0FFFFF0FFFFF0FFFFD0FFFFF0FFFF26
:104A0C00F0FFFFF0FFFFF0FFFFE0FF87C0FF0100AA
:104A1C00FF3800FFBC70FFFFF0FFFFF0FFFFF0FF5F
:104A2C00FFF0FFFFF0FFFFF0FFFFF0FFFFF0FFFFD5
:104A3C00F0FFFFF0FFFFF0FFFFE0FF83C0FF180067
:104A4C00FF1C00FF9C70FFDFF0FFDFF0FFFFF0FFAB
:104A5C00FFF0FFFFF0FFFFF0FFFFF0FFFFF0FFFFA5
:104A6C00F0FFFFF0FFFFF0FFCFE0FF83C0FF180067
:104A7C00FF1C00FFDE70FFDFF0FFDFF0FFFFF0FF39
:104A8C00FFF0FFFFF0FFFFF0FFFFF0FFFFF0FFFF75
:104A9C00F0FFFFF0FFFFF0FFCFF0FF01C0FF580069
:104AAC00FF5C00FFDFF0FFDFF0FFDFF0FFFFF0FF48
:104ABC00FFF0FFFFF0FFFFF0FFFFF0FFFFF0FFFF45
:104ACC00F0FFFFF0FFFFF0FF87F0FF00C0FE1800C3
:104ADC00FE1C00FF9FF0FFDFF0FFDFF0FFFFF0FF99
:104AEC00FFF0FFFFF0FFFFF0FFFFF0FFFFF0FFFF15
:104AFC00F0FFFFF0FFFFF0FF07F0FE0040FFF800B3
:104B0C00FFFC00FFFFF0FFBFF0FFBFF0FFDFF0FF87
:104B1C00FFF0FFFFF0FFFFF0FFFFF0FFFFF0FFFFE4
:104B2C00F0FFFFF0FFFFF0FE01F0FF6000FFF80068
:104B3C00FFFE00FFFFF0FFFFF0FFBFF0FFBFF0FF35
:104B4C00BFF0FFDFF0FFFFF0FFFFF0FFFFF0FFFF14
:104B5C00F0FF07F0FE0020FFC000FFFC00FFFE008E
:104B6C00FFFFF0FFFFF0FFFFF0FFFFF0FF3FF0FF54
:104B7C00BFF0FFBFF0FFBFF0FFFFF0FE0000FE0034
:104B8C0000FF7800FFFE00FFFFF0FFFFF0FFFFF0DB
:104B9C00FFFFF0FFFFF0FFFFF0FE7FF0FF7FF0FF65
:104BAC00BFF0FFFFF0FFFFF0FF5E00FFFFF0FFFF25
:104BBC00F0FFFFF0FFFFF0FFFFF0FFFFF0FFFFF053
:104BCC00FFFFF0FEFFF0FEFFF0FE7FF0FF7FF0FF37
:104BDC00FFF0FFFFF0FFFFF0FFFFF0FFFFF0FFFF24
:104BEC00F0FFFFF0FFFFF0FFFFF0FFFFF0FFFFF023
:104BFC00FFFFF0FEFFF0FE7FF0FF3FF0FFFFF0FF46
:104C0C00FFF0FFFFF0FFFFF0FFFFF0FFFFF0FFFFF3
:104C1C00F0FFFFF0FFFFF0FFFFF0FFFFF0FFFFF0F2
:104C2C00FC7FF0FE3FF0FFFFF0FFFFF0FFFFF0FF17
:104C3C00FFF0FFFFF0FFFFF0FFFFF0FFFFF0FFFFC3
:104C4C00F0FFFFF0FFFFF0FFFFF0FFFFF0FF7FF042
:104C5C00FC7FF0FFFFF0FFFFF0FFFFF0FFFFF0FF26
:104C6C00FFF0FFFFF0FFFFF0FFFFF0FFFFF0FFFF93
:104C7C00F0FFFFF0FFFFF0FFFFF0FE7FF0FE7FF094
:104C8C00FCFFF0FFFFF0FFFFF0FFFFF0FFFFF0FF76
:104C9C00FFF0FFFFF0FFFFF0FFFFF0FFFFF0FFFF63
:104CAC00F0FFFFF0FFFFF0FF7FF0FE7FF0FE7FF0E4
:104CBC00FE7FF0FFFFF0FFFFF0FFFFF0FFFFF0FFC4
:104CCC00FFF0FFFFF0FFFFF0FFFFF0FFFFF0FFFF33
:104CDC00F0FFFFF0FFFFF0FE7FF0FE7FF0FF7FF0B4
:104CEC00FFFFF0FFFFF0FFFFF0FFFFF0FFFFF0FF13
:104CFC00FFF0FFFFF0FFFFF0FFFFF0FFFFF0FFFF03
:104D0C00F0FFFFF0FE7FF0FE7FF0FF3FF0FFFFF0C3
:104D1C00FFFFF0FFFFF0FFFFF0FFFFF0FFFFF0FFE2
:104D2C00FFF0FFFFF0FFFFF0FFFFF0FFFFF0FFFFD2
:104D3C00F0FFFFF0FEFFF0FE3FF0FFFFF0FFFFF093
:104D4C00FFFFF0FFFFF0FFFFF0FFFFF0FFFFF0FFB2
:104D5C00FFF0FFFFF0FFFFF0FFFFF0FFFFF0FFFFA2
:104D6C00F0FFBFF0FFBFF0FE7FF0FFFFF0FFFFF0A2
:104D7C00FFFFF0FFFFF0FFFFF0FFFFF0FFFFF0FF82
:104D8C00FFF03FFFF01FFFF0FFFFF0FFFFF03F9F32
:104D9C00F01F9FF007BFF0017FF000FFF0003FF025
:104DAC00001FF00007F00001F00000F000003000E0
:104DBC000000000000000000000030000010004067
:104DCC000000400000400000400000000000000017
:104DDC0000000000000000000000000000000000C7
:104DEC000000000000000000000000004000002057
:104DFC000000200000300000000000000000000057
:104E0C000000000000000000000000000000000096
:104E1C0000000000000000000000000040000078CE
:104E2C00000018000000000000000000000000005E
:104E3C000000000000000000000000000000000066
:104E4C000000000000000000000800003800007C9A
:104E5C000000000000000000000000000000000046
:104E6C000000000000000000000000000000000036
:104E7C000000000000000000001C000038000030A2
:104E8C0000002000000000000000000000000000F6
:104E9C000000000000000000000000000000000006
:104EAC0000000000000000000018000018000018AE
:104EBC0000000000000000000000000000000000E6
:104ECC0000000000000000000000000000000000D6
:104EDC000000000000000000000C00000E00000CA0
:104EEC0000000000000000000000000000000000B6
:104EFC0000000000000000000000000000000000A6
:104F0C00000000000000000000070000030000008B
:104F1C000000000000000000000000000000000085
:104F2C000000000000000000000000000000000075
:104F3C000000000000000000003E000030000000F7
:104F4C000000000000000000000000000000000055
:104F5C000000000000000000000000000000000045
:104F6C000000000000000000000E00001C00000CFF
:104F7C000000000000000000000000000000000025
:104F8C000000000000000000000000000000000015
:104F9C000000000000000000000E00000E000007E2
:104FAC0000000700000600000000000000000000E8
:104FBC0000000000000000000000000000000000E5
:104FCC0000000000000000000000000000000000D5
:104FDC0000001000003C80003F80001F800001801A
:104FEC0000000000000000000000000000000000B5
:104FFC0000000000000000000000000000000000A5
:10500C000000000000000000000000000000000094
:10501C000000000000000003000003800007800077
:10502C001F00003C000038000000000000000000E1
:10503C0000000000000000000000000000000F0055
:10504C00000E00000E00000E00000E00000E00000E
:10505C000E00000400000000000000000000000032
:10506C0000000000003800007800007800001800F4
:10507C00001C00000E00000E0000080000000000E4
:10508C000000000000000000000000000000000014
:10509C000000000000C00000E00001F00001FE0074
:1050AC00001E00000C0000000000000000000000CA
:1050BC0000000000000000000000000000000000E4
:1050CC000000000000000001800001FC0001FC0059
:1050DC00020C0000000000000000000000000000B6
:1050EC0000000000000000000000000000000000B4
:1050FC000000000000000000000001F80003FC00AC
:10510C00030000020000000000000000000000008E
:10511C000000000000000000000000000000000083
:10512C000000000000000000600001F00003F0002F
:10513C000300000700000200000000000000000057
:10514C000000000000000000000000000000000053
:10515C000000000000000000E00001E00003C000BF
:10516C000200000600000600000200000000000023
:10517C000000000000000000000000000000000023
:10518C000000000000000000C00003C0000300008D
:10519C000600000600000E000008000004000000DD
:1051AC0000000000000000000000000000000000F3
:1051BC000000000000000000C00007800006000096
:1051CC000600000600000C00000C00000C000000A3
:1051DC0000000000000000000000000000000000C3
:1051EC0000000000000000030000030000060000A7
:1051FC000600000C00000C00000C00000C00000469
:10520C000000000000000000000000000000000092
:10521C000000000000000006000006000006000070
:10522C000C00000C00000C00000C00000C00001C1A
:10523C00000014000000000000000000000000004E
:10524C00000000000000000C00000C00000E00002C
:10525C001C00000C00000C00000C00001C00001CCA
:10526C00000014000000000000000000000000001E
:10527C00000000000000001800001C00001C0000D2
:10528C001C00001800001C00001C00001C00001C6E
:10529C0000001400000000000000000000000000EE
:1052AC00000000001800001800001C00001C00008A
:1052BC001C00001800001800001800001C00001C46
:1052CC0000001400000000000000000000000000BE
:1052DC00000000001800001800001C00001C00005A
:1052EC001C00001800001800001800001800001C1A
:1052FC000000140000080000000000000000000086
:10530C00000000001800001800001C00001C000029
:10531C001C00003800003800001800001800001CA9
:10532C0000001C000018000000000000000000003D
:10533C00000000001800001800001C00001C0000F9
:10534C003C00003800003800001800001800001C59
:10535C0000001C000018000000000000000000000D
:10536C00001800001800001800001C00001C0000B1
:10537C003800003800003800001800001C00001C29
:10538C0000001C00001C00000000000000000000D9
:10539C00001800001C00001800001C00001C00007D
:1053AC003800003800003800001C00001C00001CF5
:1053BC0000001C00001400000000000000000000B1
:1053CC00001C00001C00001C00001E00001E000041
:1053DC003C00003C00001C00001C00001C00001CD9
:1053EC0000001C00001C00000000000000000C006D
:1053FC00001C00001C00001C00001E00001E000011
:10540C001C00001C00001C00001C00001E00001EE4
:10541C0000001E00001E00000000000000000C0038
:10542C00000E00000C00000E00001E00001E00000C
:10543C001E00001E00001E00001E00001E00001EAC
:10544C0000001E00001E00000000000400000E0002
:10545C00000E00000E00000E00001F00001E0000D9
:10546C001E00001E00000E00000E00001E00001E9C
:10547C0000001F00001F00000000000400000E00D0
:10548C00000E00000E00000F00000F00001E0000B8
:10549C001E00001E00000E00000F00000F00001F79
:1054AC0000001F00001F00000000000000000E00A4
:1054BC00000E00000E00000F00000F00000F000097
:1054CC000F00001F00000F00000F00000F00000F66
:1054DC0000001F00001F000000000000000006007C
:1054EC00000E00000700000700000F80000F0000F6
:1054FC000F00000F00000700000700000F00000F56
:10550C0000000F80001F8000000000020000070058
:10551C00000F0000070000078000078000078000D4
:10552C000780000F80000780000780000F80000FAD
:10553C0080000F80000F80000000000000000700BA
:10554C0000070000070000078000078000078000AC
:10555C000780000F8000078000078000078000078D
:10556C0080000F80000F800000000001000003800D
:10557C000007800003800003C00003C00007800008
:10558C0007800007800003800003800007C000072D
:10559C00C00007C00007C00000000000000003802E
:1055AC000003800003800003C00003C00003C000A0
:1055BC0003C00007C00003C00003C00003C0000309
:1055CC00C00007C00007C00000000000800001C040
:1055DC000003C00001C00001C00001C00003C000F6
:1055EC0003C00007C00001C00001C00003C00003DD
:1055FC00C00003C00003C00000000000C00001C0D8
:10560C000001C00000E00000E00001E00001C0006B
:10561C0003C00003C00001C00001C00001C00001B4
:10562C00C00001C00001C00000000000400000C02C
:10563C000001C00000E00000E00000E00001E0001C
:10564C0001E00001E00000C00000C00001C000014A
:10565C00C00001E00001E00000000000000000C0FC
:10566C000000E00000E00000F00000F00000E000AE
:10567C0000E00000E00000E00000E00000E00000BE
:10568C00E00001E00001E00000000000000000E08C
:10569C000000E00000600000F00000F0000070006E
:1056AC0000F00000F00000E00000E00000E000006E
:1056BC00E00000E00000F00000000000000000E04E
:1056CC000000E0000060000070000070000070003E
:1056DC0000600000E00000E00000E00000E00000DE
:1056EC00F00000F00000F00000000000000000607E
:1056FC00000070000060000078000078000070006E
:10570C0000F00000F00000600000600000F00000FD
:10571C00F00000F00000F00000000000000000703D
:10572C000000700000200000780000780000780075
:10573C000078000070000060000070000070000035
:10574C00700000F80000F80000000000000000707D
:10575C0000003800003000003800003800007800ED
:10576C0000780000700000700000700000700000F5
:10577C007800007800007800000000000000003085
:10578C0000003800003000003800003800003800FD
:10579C00003800003000007000007000007800003D
:1057AC00780000780000780000000000000000384D
:1057BC0000003800003000003800003800003C00C9
:1057CC0000380000300000300000380000380000C5
:1057DC003800007800007C00000000000000003859
:1057EC0000003800003800003800003C00003C008D
:1057FC00003800003000003800003800003800008D
:10580C003800003C00003C000000000000000038A4
:10581C0000003800003800003800003C00003C005C
:10582C000038000038000038000038000038000054
:10583C003800003C00003C00000000000000003874
:10584C0000003800003800003800003C00003C002C
:10585C000038000038000038000038000038000024
:10586C003800003C00003C00000000000000003844
:10587C0000003800003800007800007C00007C003C
:10588C0000380000380000380000380000380000F4
:10589C003800003800003C000000000010000078C8
:1058AC000000380000780000F80000FC00007C00CC
:1058BC0000380000380000380000380000380000C4
:1058CC003800003C00003C000000000000000078A4
:1058DC000000380000380000F80001FC0000FC005B
:1058EC000038000038000038000038000038000094
:1058FC003C00003C00003C00000000000000007870
:10590C0000003C00003800013C0003FC0003FC00DC
:10591C00003800003800003800003C00003C00005B
:10592C003C00003C00003C00000000001800007827
:10593C0000003C00003800013C0003FC0003FC00AC
:10594C00003800003C00003C00003C00003C000023
:10595C003C00003C00003C00000000001800003C33
:10596C0000003C00003800003C0003FE0003FE0079
:10597C00003E00003E00003C00003C00003C0000EB
:10598C003C00003C00003E00000000001800003C01
:10599C0000003C00003800003C0003FE0007FE0045
:1059AC00003E00003C00003C00003C00003C0000BD
:1059BC003C00003E00003E000000000008000038E3
:1059CC0000003C00003C00003C00077E0007FE008D
:1059DC00003E00003C00003C00003C00003C00008D
:1059EC003E00003E00003E00000000000800003CAD
:1059FC0000003C00003C00003C00077E0007FE005D
:105A0C00003E00003C00003C00003C00003E00005A
:105A1C003E00003E00003E00000000001800003C6C
:105A2C0000003C00003C00003C00047E000FFE0027
:105A3C00003E00003C00003C00003C00003C00002C
:105A4C003C00003E00003E00000000003800003C1E
:105A5C0000003C00003C00003C0000FE000FFE007B
:105A6C00003E00003C00003C00003C00003C0000FC
:105A7C003C00003C00003C00001000003800003CE2
:105A8C0000003C00003C00003C00007E000FFE00CB
:105A9C00007E00003E00003C00003C00003C00008A
:105AAC003C00003C00007C00001000003800007C32
:105ABC0000007C00003C00003C00007C000FFE005D
:105ACC00047E00003E00003E00003E00003E000050
