:0C0000000C9424420C9400000C940000AE
:10000C000C9400000C9400000C9400000C94000064
:10001C000C9400000C9400000C9400000C94000054
:10002C000C9400000C9400000C9400000C94000044
:10003C000C9400000C9400000C9400000C94000034
:10004C000C9400000C9400000C9400000C94000024
:10005C000C9400000C9400000C9400000C94000014
:10006C000C9400000C9400000C9400000C94000004
:10007C000C9400000C9400000C9400000C940000F4
:10008C000C9400000C9400000C9400000C940000E4
:10009C000C9400000C9400000C9400000C940000D4
:1000AC000C9400000C9400000C9400000C940000C4
:1000BC000C9400000C9400000C9400000C940000B4
:1000CC000C9400000C9400000C9400000C940000A4
:1000DC000C9400000C940000FFFFF0FFFFF0FFFFFA
:1000EC00F0FFFFF0FFFFF0FFFFF0FFFFF0FFFFF06E
:1000FC00FFFFF0FFFFF0FFFFF0FFFFF0FFFFF0FF4F
:10010C00FFF0FFFFF0FFFFF0FFFFF0FFFFF0FFFF3E
:10011C00F0FFFFF0FFFFF0FFFFF0FFFFF0FFFFF03D
:10012C00FFFFF0FFFFF0FFFFF0FFFFF0FFFFF0FF1E
:10013C00FFF0FFFFF0FFFFF0FFFFF0FFFFF0FFFF0E
:10014C00F0FFFFF0FFFFF0FFFFF0FFFFF0FFFFF00D
:10015C00FFFFF0FFFFF0FFFFF0FFFFF0FFFFF0FFEE
:10016C00FFF0FFFFF0FFFFF0FFFFF0FFFFF0FFFFDE
:10017C00F0FFFFF0FFFFF0FFFFF0FFFFF0FFFFF0DD
:10018C00FFFFF0FFFFF0FFFFF0FFFFF0FFFFF0FFBE
:10019C00FFF0FFFFF0FFFFF0FFFFF0FFFFF0FFFFAE
:1001AC00F0FFFFF0FFFFF0FFFFF0FFFFF0FFFFF0AD
:1001BC00FFFFF0FFFFF0FFFFF0FFFFF0FFFFF0FF8E
:1001CC00FFF0FFFFF0FFFFF0FFFFF0FFFFF0FFFF7E
:1001DC00F0FFFFF0FFFFF0FFFFF0FFFFF0FFFFF07D
:1001EC00FFFFF0FFFFF0FFFFF0FFFFF0FFFFF0FF5E
:1001FC00FFF0FFFFF0FFFFF0FFFFF0FFFFF0FFFF4E
:10020C00F0FFFFF0FFFFF0FFFFF0FFFFF0FFFFF04C
:10021C00FFFFF0FFFFF0FFFFF0FFFFF0FFFFF0FF2D
:10022C00FFF0FFFFF0FFFFF0FFFFF0FFFFF0FFFF1D
:10023C00F0FFFFF0FFFFF0FFFFF0FFFFF0FFFFF01C
:10024C00FFFFF0FFFFF0FFFFF0FFFFF0FFFFF0FFFD
:10025C00FFF0FFFFF0FFFFF0FFFFF0FFFFF0FFFFED
:10026C00F0FFFFF0FFFFF0FFFFF0FFFFF0FFFFF0EC
:10027C00FFFFF0FFFFF0FFFFF0FFFFF0FFFFF0FFCD
:10028C00FFF0FFFFF0FFFFF0FFFFF0FFFFF0FFFFBD
:10029C00F0FFFFF0FFFFF0FFFFF0FFFFF0FFFFF0BC
:1002AC00FFFFF0FFFFF0FFFFF0FFFFF0FFFFF0FF9D
:1002BC00FFF0FFFFF0FFFFF0FFFFF0FFFFF0FFFF8D
:1002CC00F0FFFFF0FFFFF0FFFFF0FFFFF0FFFFF08C
:1002DC00FFFFF0FFFFF0FFFFF0FFFFF0FFFFF0FF6D
:1002EC00FFF0FFFFF0FFFFF0FFFFF0FFFFF0FFFF5D
:1002FC00F0FFFFF0FFFFF0FFFFF0FFFFF0FFFFF05C
:10030C00FFFFF0FFFFF0FFFFF0FFFFF0FFFFF0FF3C
:10031C00FFF0FFFFF0FFFFF0FFFFF0FFFFF0FFFF2C
:10032C00F0FFFFF0FFFFF0FFFFF0FFFFF0FFFFF02B
:10033C00FFFFF0FFFFF0FFFFF0FFFFF0FFFFF0FF0C
:10034C00FFF0FFFFF0FFFFF0FFFFF0FFFFF0FFFFFC
:10035C00F0FFFFF0FFFFF0FFFFF0FFFFF0FFFFF0FB
:10036C00FFFFF0FFFFF0FFFFF0FFFFF0FFFFF0FFDC
:10037C00FFF0FFFFF0FFFFF0FFFFF0FFFFF0FFFFCC
:10038C00F0FFFFF0FFFFF0FFFFF0FFFFF0FFFFF0CB
:10039C00FFFFF0FFFFF0FFFFF0FFFFF0FFFFF0FFAC
:1003AC00FFF0FFFFF0FFFFF0FFFFF0FFFFF0FFFF9C
:1003BC00F0FFFFF0FFFFF0FFFFF0FFFFF0FFFFF09B
:1003CC00FFFFF0FFFFF0FFFFF0FFFFF0FFFFF0FF7C
:1003DC00FFF0FFFFF0FFFFF0FFFFF0FFFFF0FFFF6C
:1003EC00F0FFFFF0FFFFF0FFFFF0FFFFF0FFFFF06B
:1003FC00FFFFF0FFFFF0FFFFF0FFFFF0FFFFF0FF4C
:10040C00FFF0FFFFF0FFFFF0FFFFF0FFFFF0FFFF3B
:10041C00F0FFFFF0FFFFF0FFFFF0FFFFF0FFFFF03A
:10042C00FFFFF0FFFFF0FFFFF0FFFFF0FFFFF0FF1B
:10043C00FFF0FFFFF0FFFFF0FFFFF0FFFFF0FFFF0B
:10044C00F0FFFFF0FFFFF0FFFFF0FFFFF0FFFFF00A
:10045C00FFFFF0FFFFF0FFFFF0FFFFF0FFFFF0FFEB
:10046C00FFF0FFFFF0FFFFF0FFFFF0FFFFF0FFFFDB
:10047C00F0FFFFF0FFFFF0FFFFF0FFFFF0FFFFF0DA
:10048C00FFFFF0FFFFF0FFFFF0FFFFF0FFFFF0FFBB
:10049C00FFF0FFFFF0FFFFF0FFFFF0FFFFF0FFFFAB
:1004AC00F0FFFFF0FFFFF0FFFFF0FFFFF0FFFFF0AA
:1004BC00FFFFF0FFFFF0FFFFF0FFFFF0FFFFF0FF8B
:1004CC00FFF0FFFFF0FFFFF0FFFFF0FFFFF0FFFF7B
:1004DC00F0FFFFF0FFFFF0FFFFF0FFFFF0FFFFF07A
:1004EC00FFFFF0FFFFF0FFFFF0FFFFF0FFFFF0FF5B
:1004FC00FFF0FFFFF0FFFFF0FFFFF0FFFFF0FFFF4B
:10050C00F0FFFFF0FFFFF0FFFFF0FFFFF0FFFFF049
:10051C00FFFFF0FFFFF0FFFFF0FFFFF0FFFFF0FF2A
:10052C00FFF0FFFFF0FFFFF0FFFFF0FFFFF0FFFF1A
:10053C00F0FFFFF0FFFFF0FFFFF0FFFFF0FFFFF019
:10054C00FFFFF0FFFFF0FFFFF0FFFFF0FFFFF0FFFA
:10055C00FFF0FFFFF0FFFFF0FFFFF0FFFFF0FFFFEA
:10056C00F0FFFFF0FFFFF0FFFFF0FFFFF0FFFFF0E9
:10057C00FFFFF0FFFFF0FFFFF0FFFFF0FFFFF0FFCA
:10058C00FFF0FFFFF0FFFFF0FFFFF0FFFFF0FFFFBA
:10059C00F0FFFFF0FFFFF0FFFFF0FFFFF0FFFFF0B9
:1005AC00FFFFF0FFFFF0FFFFF0FFFFF0FFFFF0FF9A
:1005BC00FFF0FFFFF0FFFFF0FFFFF0FFFFF0FFFF8A
:1005CC00F0FFFFF0FFFFF0FFFFF0FFFFF0FFFFF089
:1005DC00FFFFF0FFFFF0FFFFF0FFFFF0FFFFF0FF6A
:1005EC00FFF0FFFFF0FFFFF0FFFFF0FFFFF0FFFF5A
:1005FC00F0FFFFF0FFFFF0FFFFF0FFFFF0FFFFF059
:10060C00FFFFF0FFFFF0FFFFF0FFFFF0FFFFF0FF39
:10061C00FFF0FFFFF0FFFFF0FFFFF0FFFFF0FFFF29
:10062C00F0FFFFF0FFFFF0FFFFF0FFFFF0FFFFF028
:10063C00FFFFF0FFFFF0FFFFF0FFFFF0FFFFF0FF09
:10064C00FFF0FFFFF0FFFFF0FFFFF0FFFFF0FFFFF9
:10065C00F0FFFFF0FFFFF0FFFFF0FFFFF0FFFFF0F8
:10066C00FFFFF0FFFFF0FFFFF0FFFFF0FFFFF0FFD9
:10067C00FFF0FFFFF0FFFFF0FFFFF0FFFFF0FFFFC9
:10068C00F0FFFFF0FFFFF0FFFFF0FFFFF0FFFFF0C8
:10069C00FFFFF0FFFFF0FFFFF0FFFFF0FFFFF0FFA9
:1006AC00FFF0FFFFF0FFFFF0FFFFF0FFFFF0FFFF99
:1006BC00F0FFFFF0FFFFF0FFFFF0FFFFF0FFFFF098
:1006CC00FFFFF0FFFFF0FFFFF0FFFFF0FFFFF0FF79
:1006DC00FFF0FFFFF0FFFFF0FFFFF0FFFFF0FFFF69
:1006EC00F0FFFFF0FFFFF0FFFFF0FFFFF0FFFFF068
:1006FC00FFFFF0FFFFF0FFFFF0FFFFF0FFFFF0FF49
:10070C00FFF0FFFFF0FFFFF0FFFFF0FFFFF0FFFF38
:10071C00F0FFFFF0FFFFF0FFFFF0FFFFF0FFFFF037
:10072C00FFFFF0FFFFF0FFFFF0FFFFF0FFFFF0FF18
:10073C00FFF0FFFFF0FFFFF0FFFFF0FFFFF0FFFF08
:10074C00F0FFFFF0FFFFF0FFFFF0FFFFF0FFFFF007
:10075C00FFFFF0FFFFF0FFFFF0FFFFF0FFFFF0FFE8
:10076C00FFF0FFFFF0FFFFF0FFFFF0FFFFF0FFFFD8
:10077C00F0FFFFF0FFFFF0FFFFF0FFFFF0FFFFF0D7
:10078C00FFFFF0FFFFF0FFFFF0FFFFF0FFFFF0FFB8
:10079C00FFF0FFFFF0FFFFF0FFFFF0FFFFF0FFFFA8
:1007AC00F0FFFFF0FFFFF0FFFFF0FFFFF0FFFFF0A7
:1007BC00FFFFF0FFFFF0FFFFF0FFFFF0FFFFF0FF88
:1007CC00FFF0FFFFF0FFFFF0FFFFF0FFFFF0FFFF78
:1007DC00F0FFFFF0FFFFF0FFFFF0FFFFF0FFFFF077
:1007EC00FFFFF0FFFFF0FFFFF0FFFFF0FFFFF0FF58
:1007FC00FFF0FFFFF0FFFFF0FFFFF0FFFFF0FFFF48
:10080C00F0FFFFF0FFFFF0FFFFF0FFFFF0FFFFF046
:10081C00FFFFF0FFFFF0FFFFF0FFFFF0FFFFF0FF27
:10082C00FFF0FFFFF0FFFFF0FFFFF0FFFFF0FFFF17
:10083C00F0FFFFF0FFFFF0FFFFF0FFFFF0FFFFF016
:10084C00FFFFF0FFFFF0FFFFF0FFFFF0FFFFF0FFF7
:10085C00FFF0FFFFF0FFFFF0FFFFF0FFFFF0FFFFE7
:10086C00F0FFFFF0FFFFF0FFFFF0FFFFF0FFFFF0E6
:10087C00FFFFF0FFFFF0FFFFF0FFFFF0FFFFF0FFC7
:10088C00FFF0FFFFF0FFFFF0FFFFF0FFFFF0FFFFB7
:10089C00F0FFFFF0FFFFF0FFFFF0FFFFF0FFFFF0B6
:1008AC00FFFFF0FFFFF0FFFFF0FFFFF0FFFFF0FF97
:1008BC00FFF0FFFFF0FFFFF0FFFFF0FFFFF0FFFF87
:1008CC00F0FFFFF0FFFFF0FFFFE0FFFFE0FFFFE0B6
:1008DC00FFFFE0FFFFE0FFFFE0FFFFF0FFFFF0FF97
:1008EC00FFF0FFFFF0FFFFF0FFFFE0FFFFE0FFFF77
:1008FC00E0FFFFE0FFFFE0FFFFE0FFFFE0FFFFC0D6
:10090C00FFFFC0FFFFC0FFFFC0FFFFE0FFFFF0FFD6
:10091C00FFF0FFFFF0FFFFF0FFFFF0FFFFF0FFFF26
:10092C00D0FFFFD0FFFFC0FFFFC0FFFFC0FFFFC025
:10093C00FFFFC0FFFFC0FFFF80FFFFE0FFFFF0FFE6
:10094C00FFF0FFFFF0FFFFF0FFFFF0FFFFF0FFFFF6
:10095C00F0FFFFF0FFFFF0FFFFB0FFFFB0FFFF90D5
:10096C00FFFFC0FFFF80FFFF80FFFFC0FFFFC0FF46
:10097C00FFE0FFFFE0FFFFF0FFFFF0FFFFF0FFFFE6
:10098C00F0FFFFF0FFFFF0FFFFF0FFFFF0FFFFF0C5
:10099C00FFFFB0FFFF10FFFF10FFFF80FFFF80FF86
:1009AC00FFC0FFFFC0FFFFC0FFFFC0FFFFC0FFFF86
:1009BC00E0FFFFE0FFFFE0FFFFE0FFFFE0FFFFE0F5
:1009CC00FFFFE0FFFFE0FFFFE0FFFFE0FFFFE0FFC6
:1009DC00FFE0FFFFE0FFFFC0FFFF00FFFF00FFFF96
:1009EC0000FFFF80FFFF80FFFF80FFFF80FFFF0005
:1009FC00FFFF00FFFF00FFFF00FFFF00FFFF00FFF6
:100A0C00FF80FFFF80FFFF80FFFC00FFFC00FFFE6C
:100A1C0000FFFE00FFFE00FFFE00FFFE00FFFE00D9
:100A2C00FFFC00FFFC00FFFC00FFFE00FFFE00FFD0
:100A3C00FF00FFFF00FFFF80FFF800FFF800FFF84A
:100A4C0000FFF800FFF800FFF800FFFC00FFFC00BF
:100A5C00FFFC00FFF800FFFC00FFFE00FFFE00FFA4
:100A6C00FE00FFFF00FFFF80FFF800FFF000FFF02B
:100A7C0000FFF000FFF000FFF800FFF800FFF800A7
:100A8C00FFF800FFFC00FFFE00FFFE00FFFF00FF71
:100A9C00FF00FFFF00FFFF80FFF800FFF800FFF0F2
:100AAC0000FFF000FFF000FFF000FFF000FFF0008F
:100ABC00FFFC00FFFC00FFFE00FFFF00FFFF00FF3C
:100ACC00FF00FFFF00FFFF80FFFC00FFF800FFF0BE
:100ADC0000FFF000FFE000FFF000FFFC00FFF8005B
:100AEC00FFFC00FFFE00FFFF00FFFF80FFFF80FF09
:100AFC00FF80FFFF80FFFFC0FFFC00FFFC00FFF04A
:100B0C0000FFF000FFF000FFFC00FFFC00FFFC000A
:100B1C00FFFF00FFFF80FFFF80FFFF80FFFF80FFD4
:100B2C00FF80FFFFC0FFFFE0FFFE00FFF800FFF8B3
:100B3C0000FFF800FFF000FFFE00FFFE00FFFE00CC
:100B4C00FFFF80FFFF80FFFF80FFFF80FFFF80FF24
:100B5C00FF80FFFFE0FFFFF0FFFE00FFFC00FFFC4B
:100B6C0000FFF800FFF800FFFE00FFFE00FFFF0093
:100B7C00FFFF80FFFFC0FFFFC0FFFFC0FFFFC0FFF4
:100B8C00FFC0FFFFF0FFFFF0FFFE00FFFE00FFFCC9
:100B9C0000FFFC00FFF800FFFE007FFE00FFFF805F
:100BAC00FFFFC0FFFFC0FFFFC0FFFFC0FFFFC0FF84
:100BBC00FFC0FFFFF0FFFFF0FFFE00FFFE00FFFE97
:100BCC0000FFFC00FFFC00FFFE00BFFE00FFFF80EB
:100BDC00FFFFC0FFFFC0FFFFC0FFFFC0FFFFC0FF54
:100BEC00FFC0FFFFF0FFFFF03FFF007FFE007FFE26
:100BFC00007FFE007FFE007FFE007FFE007FFF80F7
:100C0C007FFFC07FFFC0FFFFC0FFFFC0FFFFC0FF23
:100C1C00FFC0FFFFF0FFFFF01FFF000FFF000FFFF3
:100C2C00001FFF001FFE001FFF001FFF001FFF0023
:100C3C001FFF801FFFC03FFFC03FFFC07FFFC07F73
:100C4C00FFC0FFFFF0FFFFF01FFF001FFF001FFFA3
:100C5C00001FFF001FFF001EFF001FFF001FFF00F3
:100C6C001FFF803FFFC03FFFC07FFFC07FFFC0FF63
:100C7C00FFC0FFFFF0FFFFF01FFF000FFF000FFF93
:100C8C00001FFF001FFE001FFF001FFF001FFF00C3
:100C9C001FFF801FFFC03FFFC03FFFC07FFFC07F13
:100CAC00FFC0FFFFF0FFFFF01FFF800FFF800FFF63
:100CBC00800FFF800FFF000FFF000FFF000FFF00E2
:100CCC000FFF800FFFC01FFFC03FFFC03FFFC07F63
:100CDC00FFC07FFFF07FFFF00FFF800FFF8007FF4B
:100CEC008007FF800FFF800FFF000FFF0007FF0042
:100CFC000FFF800FFFC00FFFC01FFFC01FFFC03FC3
:100D0C00FFF03FFFF07FFFF00FFF8007FF8007FF32
:100D1C008007FF0007FF0005FF0007FF0007FF002B
:100D2C0007FF8007FFC00FFFC00FFFC01FFFC01FD2
:100D3C00FFF03FFFF03FFFF007FF8007FF8007FF4A
:100D4C008007FF0007FF8007FF8007FF8007FF80F9
:100D5C0007FF8007FFC007FFC00FFFC01FFFC01FAA
:100D6C00FFF01FFFF03FFFF007FF8003FF8003FF42
:100D7C008003FF8002FF8006FF8003FF8003FF805B
:100D8C0003FFC007FFC007FFC00FFFC00FFFF01F1E
:100D9C00FFF01FFFF01FFFF003FF8003FF8003FF36
:100DAC008002FF8002FF8002FF8002FF8003FF8031
:100DBC0003FFC003FFC007FFC007FFC00FFFF00F0A
:100DCC00FFF01FFFF01FFFF003FF8001FF8001FF0A
:100DDC008003FF8003FF8003FF0002FF0003FFC0BE
:100DEC0003FFC003FFC003FFC007FFC00FFFF00FDE
:100DFC00FFF00FFFF01FFFF001FF8001FF8001FFEC
:100E0C008001FF8003FF8003FF0001FF0001FFC092
:100E1C0001FFC003FFC007FFC007FFF007FFF0078B
:100E2C00FFF00FFFF00FFFF001FF8001FF8001FFCB
:100E3C008001FF80017F80017F8001FF8001FFC066
:100E4C0001FFC001FFC007FFC007FFF007FFF0075D
:100E5C00FFF007FFF00FFFF001FF8000FF8000FFA5
:100E6C008001FF0001FF0001FF8001FF8001FFC036
:100E7C0001FFC001FFC007FFE007FFF003FFF00315
:100E8C00FFF007FFF007FF7000FF8000FF8000FFFE
:100E9C008000FF8001FF0001FF8000FF8000FFC089
:100EAC0001FFC001FFC003FFC003FFF003FFF0030D
:100EBC00FFF007FFF007FF7000FF8000FF8000FFCE
:100ECC008000FF0000FF0000FF0000FF8000FFC05B
:100EDC0000FFC001FFC003FFC003FFF003FFE003EE
:100EEC00FFE003FF7007FF7000FF8000FF8000FF32
:100EFC008000FF0000FF0000FF0000FF8000FF806B
:100F0C0000FFC000FFC003FFC003FFE001FFE003D0
:100F1C00FFE003FFE007FFE001FF8000FF8000FF20
:100F2C0080007F80007F80007F0000FF0000FF803A
:100F3C0000FF8000FFC003FFC001FFE001FFE003E2
:100F4C00FFC003FFC007FFC001FF8000FF8000FF50
:100F5C0080007F80007F80007F00007F0000FF000A
:100F6C0000FF8000FF8003FF8003FFC001FFC00370
:100F7C00FFC003FFC007FFC000FF8000FF0000FFA1
:100F8C0000007F00007F00007F00007F0000FF005A
:100F9C0000FF8001FF8003FF8003FFC003FFC0033D
:100FAC00FFC003FFC007FFC000FF0000FF0000FFF1
:100FBC0000007F00007F00007F0000FF0001FF00A9
:100FCC0001FF8003FF8003FF8003FF8003FF80038A
:100FDC00FD8007FD8007FDC000FF0001FE0001FE43
:100FEC000000FF00007F00007F0000FF0001FF00F9
:100FFC0001FF0003FF0003FF8003FF8003FD800758
:10100C00FF8007FB8007F98001FE0001FE0000FE57
:10101C0000007E00007F0000FF0000FE0001FF00CA
:10102C0001FF0003FF0007FF0003FF8003FB8007A5
:10103C00FB8007FB800FFB8001FE0001FE0000FE21
:10104C000000FE0000FE0000FE0000FC0001FE009F
:10105C0003FF0003FB0007FF0003FB0007FB000777
:10106C00FB800FFB800FFB8001FE0003FC0001FCEA
:10107C000000FE0000FE0000FE0001FE0003FE006A
:10108C0003FE0003FF0007FF0007FF0007F7000740
:10109C00F7000FF7000FF78001FE0003FE0001FCC4
:1010AC000000FC0000FC0000FC0001FC0003FE0042
:1010BC0003FE0003FE0007FF0007F70007F7000F11
:1010CC00F7000FF7001FF78001FE0003FC0001FC86
:1010DC000000FC0000FC0000FC0001FC0003FC0014
:1010EC0003FE0003FE0007FF0007F70007F7000FE1
:1010FC00F7000FF7001FF70001FE0003FC0001FCD6
:10110C000001F80001FC0000FC0000FC0003FC00E6
:10111C0003FE0003FE0007FE0007FF000FFF000F99
:10112C00FF000FFF001FFF0001FE0003FC0003FC8B
:10113C000001F80001F80001F80001F80003FC00C0
:10114C0003FC0007FE0007FE0007FD000FFF000F69
:10115C00FF000FFF001FFF0003FE0001FC0003FC5B
:10116C000001F80001F80001F80001F80003F80094
:10117C0003FC0007FE0007FE0007FE000FEF000F48
:10118C00EF000FEF001FEF0003FE0001FC0003F85F
:10119C000001F80001F80001F80001F80003F80064
:1011AC0003FC0007FC0007FE0007FE000FFE000F0B
:1011BC00FF000FEF001FEF0003FC0001FC0003F821
:1011CC000001F80001F00001F80001F80003F8003C
:1011DC0003FC0007FC0007FE0007FE000FFE000FDB
:1011EC00FE001FFF001FFF0003FC0001FC0003F8C2
:1011FC000001F80001F00001F00001F00003F8001C
:10120C0003FC0007FC0007FC0007FA000DFE000FB2
:10121C00FE001FFE001FFF0003FC0001F80003F896
:10122C000001F80001F00003F00001F00003F800E9
:10123C0003F80007FC0007FC0007FC000DFE000F84
:10124C00FE001FFE001FFE0003FC0003F80003F865
:10125C000001F00003F00001F00003F00003F000C7
:10126C0003F80007FC000FFC000DFC000DFE000F46
:10127C00FE001FFE001FFE0007FC0003F80003F039
:10128C000001F00003F00001F00003F00003F00097
:10129C0007F80007F8000FFC000DFC000DFC000F18
:1012AC00FE001FFE001FFE0007F80003F80003F00D
:1012BC000003F00003F00003F00001F00003F00065
:1012CC0007F80007F8000DF8000DFC000DFC000FEE
:1012DC00FC001FFE001FFC0007F80003F80007F0DD
:1012EC000003E00003F00003F00003F00007F0003F
:1012FC0007F80007F8000DF8000DF8000DFC001FB2
:10130C00FC001FFC001FFC0007F80003F00007F0B6
:10131C000003E00003E00003E00003E00007F0003E
:10132C0007F80007F8000DF8000DF8000DF8001F85
:10133C00FC001FFC001FFC0007F80003F00007E096
:10134C000003E00003E00003E00003E00007F0000E
:10135C0007F00007F0000DF8000DF8000DF8001F65
:10136C00FC001FFC001FFC0007F80003F00007E066
:10137C000003E00003E00003E00003E00007E000EE
:10138C0007F00007F0000DF0000DF8000DF8001F3D
:10139C00FC001FFC001FFC0007F00003F00007E03E
:1013AC000003E00003E00003E00003E00007E000BE
:1013BC0007F00007F0000DF0000DF8000DF8000F1D
:1013CC00FC001FF8001FFC0007F00007F00007E00E
:1013DC000003E00003E00003E00003E00007E0008E
:1013EC0007F00007F0000FF0000DF8000DF8000DED
:1013FC00FC001FF8001FFC0007F00007F00007E0DE
:10140C000007E00003C00003E00003E00007E00079
:10141C0007F00007F00007F00007F8000FF8000FC6
:10142C00FC001FF8001FFC0007F00007F00003F0A1
:10143C000003E00003C00003C00003E00003E00071
:10144C0007F00007F00007F00007F8000FF8000F96
:10145C00FC000FF8001FFC0007F00007F00003F081
:10146C000003E00003E00003C00003E00003E00021
:10147C0003F00007F00007F00007F8000FF8000F6A
:10148C00FC000FFC000FFC0007F80003F00003E069
:10149C000003E00003E00003C00003E00003F000E1
:1014AC0003F80007F00006F80006F80006F8000E36
:1014BC00FC000FFC000FFC0007F80003F00001E03B
:1014CC000003E00003E00003E00003F00003F00081
:1014DC0003F80002F80006F80006F80006FC000EFF
:1014EC00FC000FFC000FFC0003F80003F00001F0FF
:1014FC000001F00003E00003E00003F00003F00043
:10150C0003F80003F80003F80007F80007FC0006D6
:10151C00FC000FFC000FFC0003F80003F80001F0C6
:10152C000001E00001E00003E00001F00003F00026
:10153C0003F80003F80003F80003FC0007FC0007A5
:10154C00FC0006FC0007FC0003F80003F80001F0A7
:10155C000001F00001E00001F00001F00003F000D8
:10156C0003F80003F800037800037C00037C0007F9
:10157C00FE0007FC0006FC0003F80003F80001F075
:10158C000001F00001E00001F00001F00001F800A2
:10159C0003F80003F800037800037C00037C0007C9
:1015AC00FE0003FC0006FC0003F80003F80001F049
:1015BC000001F00001F00001F00001F00001F80062
:1015CC0003F80003F80003FC0003FC0003FE000317
:1015DC00FE0003FE0003FE0003F80003F80001F018
:1015EC000000F00000F00001F00001F00001F80034
:1015FC0003F80003F80003FC0003FC0003FE0003E7
:10160C00FE0003FE0003FE0003F80001F80001F0E9
:10161C000000F80000F00000F00000F00001F800FD
:10162C0003F80003FC0003FC0003FC0003FE0003B2
:10163C00FE0003FE0003FE0001B80001F80001F0FB
:10164C000000F80000F00000F00000F00001F800CD
:10165C0003FC0002FC0002FC0003FC0003FE000380
:10166C00FE0003FE0001FE0000B80001F80001F8C6
:10167C000000F80000F00000F00000F00001F8009D
:10168C0001FC0002FC0002FC0003FE0003FE000350
:10169C00FE0001FE0001FE0000380001F80001F818
:1016AC000000F80000F00000F00000F00001F8006D
:1016BC0001FC0002FC0002FC0003FE0003FE000320
:1016CC00FE0001FE0001FE0000B80001F80001F868
:1016DC000000F80000700000F00000F00000F800BE
:1016EC0001FC0000FC0002FC0003FE0003FE0001F4
:1016FC00FE0001FE0001FE0000F80001F80000F001
:10170C000000F80000700000700000F80000F80005
:10171C0001FC0001FC0002FC0003FE0003FE0001C2
:10172C00FE0001FE0001FE0000F80001F80000F0D0
:10173C000000F80000780000700000780000F8004D
:10174C0001FC0001FC0001FC0003FE0003FE000193
:10175C00FE0001FE0000FE0000F80001F80000F0A1
:10176C000000F80000780000780000780000F80015
:10177C0000FC0001FC0001F40001FE0003FE00016E
:10178C00FE0001FE0000FE0000F80001F80000F869
:10179C000000780000780000780000780000F80065
:1017AC0000FC0001FC0001F60001FE0003FE00013C
:1017BC00FE0000FE0000FE0000FC0000FC0000F833
:1017CC000000780000780000780000780000F80035
:1017DC0000FC0000F40001F60001FE0001FF000116
:1017EC00FE0000FF0000FE0000FC0000FC0000F802
:1017FC000000780000780000780000780000F80005
:10180C0000FC0000F40001F60001FE0001FF0001E5
:10181C00FE0000FF0000FF0000FC0000FC0000F8D0
:10182C000000780000780000780000780000FC00D0
:10183C0000FC0000F40000F60001FE0001FF0001B6
:10184C00FE0000FE0000FF0000FC0000FC00007821
:10185C000000780000780000780000780000FC00A0
:10186C0000FC0000F40000F60001FE0001FF000186
:10187C00FE0000FE0000FF0000FC0000FC000078F1
:10188C0000007C0000780000780000780000FC006C
:10189C0000FC0000FC0000F60001F60001FF000156
:1018AC00FE0000FE0000FE00001C0000FC00007C9E
:1018BC0000007C0000380000380000780000FC00BC
:1018CC0000FC0000FC0000FC0001FE0001FE000119
:1018DC00FE0000FE0000FE00000C0000FC0000FCFE
:1018EC0000007800007800003800007800007C00D0
:1018FC00007C0000FC0000FC0001FE0001FE000169
:10190C00FE0000FE0000FE00000C0000FC0000FCCD
:10191C000000780000780000380000780000F80023
:10192C0000FC0000FC0001FC0001FE0001FE0001B7
:10193C00FE0000FE0000FE0000080000FC0000F8A5
:10194C000000780000780000380000780000F800F3
:10195C0000FC0000FC0001FC0001FE0001FE000187
:10196C00FE0000FE0000FA0000080000FC0000F879
:10197C000000780000780000380000780000F800C3
:10198C0000FC0000FC0001FC0001FE0001FE000157
:10199C00FE0000FE0000FA0000080000F80000F84D
:1019AC000000780000780000780000780000F80053
:1019BC0000F80000FC0001EC0001FC0001FE00013D
:1019CC00F60001FE0001FA0000C00000F80000F86B
:1019DC000000700000700000780000F80000F800B3
:1019EC0000F80000EC0001EC0001EC0001FE00012D
:1019FC00F60001F60001FA0000C00000F80000F843
:101A0C000000F00000700000700000F00000F80012
:101A1C0000E80001E80001EC0003EC0001FC00010F
:101A2C00FC0001F40001FA0000C00000F80000F80E
:101A3C000000F00000700000700000F00001F800E1
:101A4C0001E80001E80001EC0003EC0001FC0001DE
:101A5C00FC0001F40001FC0000C00000F80000F8DC
:101A6C000000F00000700000700000F00001F800B1
:101A7C0001F80001E80001E80003EC0003EC0003AE
:101A8C00FC0001F40001FC0000C00000F80000F8AC
:101A9C000000F00000700000700000F00001F80081
:101AAC0001F80001F80001F80003FC0003EC00034E
:101ABC00FC0001FC0001F40000C00000F80000F87C
:101ACC000000F00000700000700000F00001F80051
:101ADC0001F80001F80003F80003F80003FC000310
:101AEC00EC0003FC0001F40000800000F80000F89A
:101AFC000000F00000700000700000F00000F80022
:101B0C0001F80001F80003F80003F80003F80003E3
:101B1C00EC0003F80003F40000800000F80000F86B
:101B2C000000F00000F00000E00000F00000F80001
:101B3C0001F80001F80003F80003F80003F80003B3
:101B4C00FC0003F80003F00000000000F00000F8B7
:101B5C000000F00000F00000E00000F00000F000D9
:101B6C0001F80001F80003D80003F80003F80003A3
:101B7C00F80003E80003F80000000000F00000F893
:101B8C000000F00000F00000E00000F00000F000A9
:101B9C0001F80001F80003D80003F80003F8000373
:101BAC00F80003E80003F80000000000F00000F863
:101BBC000000F00000E00000E00000F00001F00088
:101BCC0001F80001F80003D80003D80003F8000363
:101BDC00F80003E80003F80000000001F00001F039
:101BEC000000F00000E00000E00000E00001F00068
:101BFC0001F00003F80003D80003D80003F8000339
:101C0C00F80007F80003F80000000001F00001F0F4
:101C1C000000F00000E00000E00000E00001F00037
:101C2C0001F00003F80003F80007F80007F80003C0
:101C3C00F80007F80007F00000000001F00001F0C8
:101C4C000000F00000E00000E00000E00001F00007
:101C5C0001F00003F00003F80007F80007F8000794
:101C6C00F80007F00007F00000000001F00001F0A0
:101C7C000001E00000E00000E00000E00001F000E6
:101C8C0001F00003F00003F80007F80007F8000764
:101C9C00F00007F00007F00001000001F00001F077
:101CAC000001E00000E00000E00000E00001F000B6
:101CBC0001F00003F00003F00007F80007F800073C
:101CCC00F00007F00007F00001000001F00001F047
:101CDC000001E00000E00000E00000E00001F00086
:101CEC0003F00003F00003F00007F80007F800070A
:101CFC00F00007F00007F00001000001F00001F017
:101D0C000001E00000E00000E00000E00001E00065
:101D1C0003F00003F00003F00007F00007F80007E1
:101D2C00F00007F00007F00001000001F00001E0F6
:101D3C000001E00000C00000C00001E00001E00074
:101D4C0003E00003F00003F00007F00007F80007C1
:101D5C00F00007F00007F00001000001F00001E0C6
:101D6C000001E00001C00001C00001E00001E00042
:101D7C0003E00003F00003F00007F00007F0000799
:101D8C00F00007F00007F00000000003E00003E0A3
:101D9C000001E00001C00001C00001E00001E00012
:101DAC0003E00003F00003F00007F00007F0000769
:101DBC00F00007F00007F00000000003E00003E073
:101DCC000001E00001C00001C00001E00001E000E2
:101DDC0001E00003F00003F00007F00007F000073B
:101DEC00F00007F00007F00000000003E00001E045
:101DFC000001E00001C00001C00001E00001E000B2
:101E0C0001E00003F00003F00007F00007F000070A
:101E1C00F00007F00005F00000000001F00001E008
:101E2C000001E00001C00001C00001E00001F00071
:101E3C0001F00003F00003F00007F00007F00007CA
:101E4C00F00007F00005F00000000001F00001F0C8
:101E5C000001E00001E00001C00001E00001F00021
:101E6C0001F00001F00003F00003F80003F8000398
:101E7C00F00007F00005F00000000001F00001F098
:101E8C000000E00001E00001E00001E00001F000D2
:101E9C0001F00001700003780003F80003F8000261
:101EAC00F00003F00001F80000000001F00001F068
:101EBC000000E00000E00001E00001E00001F000A3
:101ECC0001700001700003780003F80003F80002B1
:101EDC00F00003F80001F80000000001F00001F030
:101EEC000000E00000E00000E00001F00001F00064
:101EFC0001F00001700003780003780003F8000380
:101F0C00F00002F80001F80000000001F00001F000
:101F1C000000F00000E00000E00000F00001F00024
:101F2C0001F00001F80001F80003780003F8000349
:101F3C00F80002F80001F80000000001F00001F0C8
:101F4C000000F00000E00000E00000F00001F000F4
:101F5C0001F00001F80001F80003F8000378000319
:101F6C00F80002F80003F80000000001F00001F096
:101F7C000000F00000E00000E00000F00001F000C4
:101F8C0001F00001F80001F80003FC0003780001E7
:101F9C00F80002F80003F80000000001F00001F066
:101FAC000000F00000E00000E00000F00001F8008C
:101FBC0001F80001F80001F80001FC0001FC00012F
:101FCC00F80003F80000F80000000001F00001F038
:101FDC000000F00000E00000E00000F00001F8005C
:101FEC0001F80000F80001F80001FC0001FC000100
:101FFC00780001F80000F80000000000B00001F0CB
:10200C000000F00000F00000F00000F00001F00013
:10201C0001F80000F80001FC0001FC0001FC0001CB
:10202C007C0001F80000FC0000000000300001F012
:10203C000000F00000700000700000F00001F000E3
:10204C0001F80001F80001BC0001FC0001FC0001DA
:10205C00FC0001FC0001FC0000000000300000F05E
:10206C000000F00000700000700000F00000F000B4
:10207C0001F80001F80001BC0001BC0001FC0001EA
:10208C00FC0001FC0000FC0000000000700000F0EF
:10209C000000F00000700000700000F00000F8007C
:1020AC0001F80001F80001BC0001BC0001FC0001BA
:1020BC00FC0001FC0000FC0000000000F00000F837
:1020CC000000F00000700000700000700000F800CC
:1020DC0001F80001F80001FC0001FC0001FC00010A
:1020EC00FC0001FC0000FC0000000000F80000F8FF
:1020FC000000F00000700000700000700000F8009C
:10210C0000F80001FC0001FC0001FE0001FC0001D4
:10211C00FC0000FC0000FC0000000000F80000F8CF
:10212C000000700000700000700000700000F800EB
:10213C0000F80001FC0001FC0001FE0001FC0001A4
:10214C00FC0000FE0000FC0000000000F80000F89D
:10215C000000780000700000700000700000F800B3
:10216C0000F80000FC0001FC0001FE0001FC000076
:10217C00FE0000FE0000FE0000080000F80000F861
:10218C000000780000700000700000700000F80083
:10219C0000F80000FC0001FC0001FE0000FE000045
:1021AC00FE0000FE0000FE0000180000F80000F821
:1021BC000000780000700000700000780000F8004B
:1021CC0000FC0000FC0001FC0001FE0000FE000011
:1021DC00FE00007E0000FE0000180000F80000F871
:1021EC00000078000070000070000078000078009B
:1021FC0000FC0000FC0001FC0001FE0000FE0000E1
:10220C00FE00007E0000FE0000180000F8000078C0
:10221C00000078000070000070000078000078006A
:10222C0000FC0000FC0001FC0001FE0000FE0000B0
:10223C00FE00007E0000FE0000080000F8000078A0
:10224C0000007800003800003000007800007800B2
:10225C0000FC0000FC0001FC0001FE0000FE000080
:10226C00FE00007E0000FE0000000000F800007878
:10227C000000780000380000300000780000780082
:10228C0000FC0000FC0001FC0001FE0001FE00004F
:10229C00FE00007A0000FE00000000007C000078C8
:1022AC000000780000780000380000700000780012
:1022BC0000F80000FC0001FC0001FE0001FE000023
:1022CC00FE00007A0000FE0000000000780000789C
:1022DC000000780000780000380000780000F8005A
:1022EC0000F80000FC0001FC0001FE0001FE0000F3
:1022FC00FE0000FE0000FA0000000000F80000786C
:10230C000000780000700000380000780000F80031
:10231C0000F80000F80001FC0001FE0001FE0001C5
:10232C00FE0000FE0000FA0000000000F80000F8BB
:10233C000000700000700000380000780000F80009
:10234C0000F80000F80001FC0001FE0001FC000197
:10235C00FC0000FE0000FA0000000000F80000F88D
:10236C000000700000700000700000780000F800A1
:10237C0000F80001E80001EC0001FC0001FC000188
:10238C00F40000FE0001FA0000000000F80000F864
:10239C000000700000700000700000700000F80079
:1023AC0000F80001E80001EC0001FC0001FC000158
:1023BC00F40001FC0001F80000000000F80000F837
:1023CC000000700000700000700000F00000F800C9
:1023DC0000F80001E80001EC0001EC0001FC000138
:1023EC00FC0001F40001F80000000000F80000F807
:1023FC000000F00000700000700000F00000F80019
:10240C0000F80001F80001F80001EC0001FC0001EB
:10241C00FC0001F40001F80000000000F80000F8D6
:10242C000000F00000700000700000F00000F800E8
:10243C0000F80001F80001F80003FC0003EC0001B7
:10244C00FC0001F40001F80000000000F80000F8A6
:10245C000000F00000700000700000F00001F800B7
:10246C0001F80001F80001F80003FC0003EC000186
:10247C00F80001F40001F80000000000F80000F87A
:10248C000000F00000700000700000F00001F80087
:10249C0001F80001F80003F80003F80003F800034A
:1024AC00F80001FC0001F00000000000D80000F86A
:1024BC000000F00000700000700000F00001F80057
:1024CC0001F80001F80003F80003F80003F800031A
:1024DC00E80003F80003F00000000000D00000F852
:1024EC000000F00000700000600000F00000F00040
:1024FC0001F80001F80003F80003F80003F80003EA
:10250C00F80003F80003F00000000000C00000F821
:10251C000000F00000F00000E00000F00000F0000F
:10252C0001F80001F80003D80003F80003F80003D9
:10253C00F80003F80003F80000000000C00000F8E9
:10254C000000F00000F00000600000F00000F0005F
:10255C0001F80001F80003D80003D80003F80003C9
:10256C00F80003F80003F80000000000C00000F8B9
:10257C000000F00000F00000E00000F00000F000AF
:10258C0001F80001F80003D80003F80003F8000379
:10259C00F80003F80003F00000000000F00000F861
:1025AC000000F00000F00000E00000F00000F0007F
:1025BC0001F80001F80003F80003F80003F8000329
:1025CC00F80003F80003F80000000000F00000F829
:1025DC000000F00000F00000E00000F00000F0004F
:1025EC0001F80001F80003F80003F80003F80003F9
:1025FC00FC0003F80003F80000000000F80000F8ED
:10260C000000F00000F00000F00000F00000F0000E
:10261C0001F80001F80001F80003FC0003FC0003C2
:10262C00FC0003F80003F80000800001F80000F83B
:10263C000000F80000F00000F00000F00000F000D6
:10264C0001F80001F80001FC0003FC0003FC00038E
:10265C00FC0003FC0003FC0000C00001FC0000F8BF
:10266C000000F80000F00000700000F00000F8001E
:10267C0001F80001F80001FC0003EC0003FE00036C
:10268C00FE0003FE0003FC0001C00001FC0000F88A
:10269C000000F80000F00000700000F00000F800EE
:1026AC0001FC0001FC0001FC0001FC0003FE000326
:1026BC00FE0003FE0003FE0001C00001FC0000FC54
:1026CC000000F80000F80000700000780000F8002E
:1026DC0000FC0001FC0001FC0001FE0001FE0003F7
:1026EC00FF0003FF0003FF0001C80001FC0000FC19
:1026FC000000FC0000F80000780000780000F800F2
:10270C0000FC0001FC0001F60001F60001F70003DB
:10271C00FF0003FF0003FF0001C80001FE0000FCE6
:10272C000000FC0000F80000780000780000F800C1
:10273C0000FC0001FC0001FE0001FE0001FF000195
:10274C00FF0003FF0003FB8001C00001FE0000FE40
:10275C000000FE0000FC00007C0000780000F80087
:10276C0000FC0000FC0001FE0000FA0001FB00016F
:10277C00FB0001FB8003FB8000C00001FE0000FE9B
:10278C000000FE0000FC00007C00007C0000F80053
:10279C0000FC0000FC0001FE0000FE0000FB00013C
:1027AC00FB8001FB8001FF8000C00000FE0000FFE9
:1027BC000000FE0000FC00007E0000FC0000FC009D
:1027CC0000FC0000FC0000FE0000FF0000FB00000D
:1027DC00FB8000FD8001FD8000C60000FF0000FFB3
:1027EC000000FF00007E00007E0000FC0000FC00EA
:1027FC0000FC0000FC00007E0000FF00007F800059
:10280C007D8000FD8000FD8000C70000FF0000FF00
:10281C0000007F00007E00007E00007C0000FC00B9
:10282C0000FC0000FC00007F0000FF80007F8000A7
:10283C007D8000FDC000FDC000670000FF8000FF30
:10284C0080007F00007F00007E00007E00007E0084
:10285C00007E00007E00007E00007F00007F800074
:10286C007DC0007DC000FDE0006780007F80007FA0
:10287C0080007F00007F00007F00007E00007E0053
:10288C00003E00007E00007F00007F80007F800003
:10289C003FC0007FE0007FE0007780007F80007FFA
:1028AC0080007F80007F80003F00003F00007F00A1
:1028BC00007E00007F00003F00003F80003F800052
:1028CC003FC0003FE0007EE0003780003F80003FCB
:1028DC0080007F80007F80003F80003F80003F00B1
:1028EC00003F00003F00003F00003F80003FC00061
:1028FC003EC0003EE0007EF0003F80003F80003F85
:10290C0080003F80003F80003F80003F80003F8080
:10291C00003F80003F00003F00003F80003FC000B0
:10292C003FC0003EE0007EF0001B80003F80003F77
:10293C0080003F80003FC0003FC0003F80003F80D0
:10294C00003F80003F80003F80003F80003FC00080
:10295C003FC0003FE0007FF0000B80001F80003F75
:10296C0080003F80003FC0003FC0001F80001F80E0
:10297C00001F80001F80003F80003F80003F8000D0
:10298C003FC0003FE007FFF0000180001F80003FC8
:10299C0080003F80003FC0003FC0001FC0001FC030
:1029AC00001FC0001FC0001F80003F80003F800040
:1029BC003FC0073FC007FFE0000180001F80003FC1
:1029CC0080003F80003FC0003FC0001FC0001FC000
:1029DC00001FC0001FC0001FC0001F80003F8002EE
:1029EC003FC007FFC007FFE0000300000F80001F7F
:1029FC0080003F80003FC0001FC0001FC0001FC0F0
:102A0C00000FC0000FC0001FC0001F80021F8007F6
:102A1C003FC007FFC007FFC0000300000700001FF6
:102A2C0080003F80003F80001FC0001FC0001FC0FF
:102A3C00000FC0000FC0000FC0001F80071F8007D1
:102A4C003FC007FF8003FFC0000200000300001F0F
:102A5C0080003F80003F80001FC0001FC0001FC0CF
:102A6C00000FC0000FC0000FC0001F80071F8007A1
:102A7C00FFC007FF8000FFC0000200000600000F2F
:102A8C0080001F80003F80001F80001FC0001FC0FF
:102A9C00000FC0000FC0000FC0031F80071F80076E
:102AAC00FF8003FF8000FF80000000000600000F85
:102ABC0080001F80003F80001F80001F80001FC00F
:102ACC00000FC0000FC0000FC0031F00071F00073E
:102ADC00FF8000FF8000FF80000000000600000F58
:102AEC0080001F80003F80001F80001F80001F801F
:102AFC00000FC0000FC0000FC0071F00071F00030E
:102B0C00FF8000FF8000FF80000000000600000F27
:102B1C0000001F80003F80001F80001F80001F806E
:102B2C00000FC0000FC0000FC0071F00071F0003DD
:102B3C00FF8000FF8001FF80000000000600000FF6
:102B4C0000001F80003F80001F80001F80001F803E
:102B5C00000F80000F80000F80071F00079F0003ED
:102B6C00FF8001FF8001FF80000000000600000FC5
:102B7C0000001F80003F80001F80001F80001F800E
:102B8C00000F80000F80030F80071F00079F0001BC
:102B9C00FF8001FF8001FF80000000000C00000F8F
:102BAC0000001F80003F80003F80001F80001F80BE
:102BBC00000F80000F80030F80071F0007FF00012C
:102BCC00FF8001FF8001FF80000000000C00000F5F
:102BDC0000001F80003F80003F80001F80001F808E
:102BEC00000F80000F80030F80071F0003FF000100
:102BFC00FF8001FF8001FF80000000000C00000F2F
:102C0C0000001F80003F80003F80001F80001F805D
:102C1C00000F80000F80070F00071F0003FF00014B
:102C2C00FF8001FF8001FF80000000000C00000FFE
:102C3C0000003F80003F80003F80001F80001F800D
:102C4C00000F80000F80070F00071F0003FF00011B
:102C5C00FF8001FF8001FF80000000000C00000FCE
:102C6C0000003F80003F80003F80001F80001F80DD
:102C7C00001F80000F80070F00071F0003FF0001DB
:102C8C00FF8001FF8003FF80000000000C00000F9C
:102C9C0000003F80003F80003F80001F80001F80AD
:102CAC00001F80000F80070F00071F0003FF0001AB
:102CBC00FF8001FF8003FF80000000000800000F70
:102CCC0000003F00003F80003F80001F80001F80FD
:102CDC00001F80000F00070F00071F0003FF0001FB
:102CEC00FF8001FF8003FF80000000001800000F30
:102CFC0000003F00003F80003F80001F80001F80CD
:102D0C00001F80000F00070F00079F0003FF00014A
:102D1C00FF8001FF8003FF80000000001800001FEF
:102D2C0000003F00003F80003F80001F80001F809C
:102D3C00001F80000F00070F00079F0003FF00011A
:102D4C00FF8001FF8003FF80000000001800001FBF
:102D5C0000003F00003F80003F80001F80001F806C
:102D6C00001F80000F80070F00079F0003FF00016A
:102D7C00FF8001FF8003FF80000000001800001F8F
:102D8C0000003F00003F00003F80003F80001F809C
:102D9C00001F80000F80070F00079F0003FF00013A
:102DAC00FF0001FF8003FF80000000001800001EE0
:102DBC0000003F00003F00003F80003F80001F806C
:102DCC00001F80000F80070F00071F0003FF00018A
:102DDC00FF0001FF8001FF80000000001800001EB2
:102DEC0000003F00003F00003F80003F80001F803C
:102DFC00001F80000F80070F00071F0003FF00015A
:102E0C00FF0001FF8001FF80000000001800001E81
:102E1C0000003F00003F00003F80003F80001F800B
:102E2C00001F80000F80071F00071F0003FF000119
:102E3C00FF0001FF0001FF80000000001800001ED1
:102E4C0000003F00003F00003F80003F80001F80DB
:102E5C00001F80001F80071F00071F0003FF0001D9
:102E6C00FF0001FF0001FF80000000001800001EA1
:102E7C0000003F00003F00003F80003F80001F80AB
:102E8C00001F80001F80071F00071F0003FF0001A9
:102E9C00FF0001FF0001FF80000000001800001E71
:102EAC0000003F00003F00003F80003F80001F807B
:102EBC00001F80001F80071F00071F0003FF000179
:102ECC00FF0001FF0001FF80000000001800001F40
:102EDC0000003F00003F00003F80003F80001F804B
:102EEC00001F80001F80071F00071F0003FF000149
:102EFC00FF0001FF0001FF80000000001800001F10
:102F0C0000003F00003F00003F80003F80001F801A
:102F1C00001F80001F00071F00071F0003FF000198
:102F2C00FF0001FF0001FF80000000001800001FDF
:102F3C0000003F00003F00003F80003F80001F80EA
:102F4C00001F80021F00071F00071F0003FF000166
:102F5C00FF0001FF0001FF80000000001800001FAF
:102F6C0000003F00003F80003F80003F80001F803A
:102F7C00001F80021F00071F00079F0003FF0001B6
:102F8C00FF0001FF0001FF80000000001800001F7F
:102F9C0000003F00003F80003F80003F80001F800A
:102FAC00001F80001F00071F00079F0003FF000188
:102FBC00FF0001FF0001FF80000000001800001F4F
:102FCC0000003F00003F80003F80003F80001F80DA
:102FDC00001F80011F00071F00039F0003FF00015B
:102FEC00FF0001FF0001FF80000000001800001F1F
:102FFC0000003F00003F80003F80003F80001F80AA
:10300C00001F80011F00031F00039F0003FF00012E
:10301C00FF0001FF0001FF80000000001800001FEE
:10302C0000003F00003F80003F80003F80001F8079
:10303C00001F80011F80031F00039F0003FF00017E
:10304C00FF0001FF0001FF80000000001800001FBE
:10305C0000003F00003F80003F80003F80001F8049
:10306C00001F80011F80031F00039F0001FF000150
:10307C00FF0001FF0001FF80000000001800001F8E
:10308C0000003F00003F80003F80003F80001F8019
:10309C00001F80010F80031F00039F0001FF000130
:1030AC00FF0001FF0001FF80000000001C00001F5A
:1030BC0000003F00003F80003F80003F80001F80E9
:1030CC00001F80030F80031F00039F0001FF0001FE
:1030DC00FF0001FF8001FF80000000001C00001FAA
:1030EC0000003F80003F80003F80003F80001F8039
:1030FC00001F80030F80039F00039F0001FF00014E
:10310C00FF0001FF8001FF80000800001C00001F71
:10311C0000003F80003F80003F80003F80001F8008
:10312C00001F80030F80039F80039F8001FF00011D
:10313C00FF0001FF8001FF80001800001C00001F31
:10314C0000003F80003F80003F80003F80001F80D8
:10315C00001F80030F80038F80039F8001FF0001FD
:10316C00FF0001FF8001FF80001800001E00001FFF
:10317C0000003F80003F80003F80003F80001F80A8
:10318C00001F80030F80038F80039F8000FF0001CE
:10319C00FF0001FF8001FF80001800001F00001FCE
:1031AC0080003F80003F80003F80003F80001F80F8
:1031BC00001F80030F80038F80039F8000FF00019E
:1031CC00FF0001FF8001FF80001800001F00001F9E
:1031DC0080003F80003F80003F80003F80001F80C8
:1031EC00001F80030F80038F80039F0000FF0001EE
:1031FC00FF8001FF8001FF80001800001F00001FEE
:10320C0080003F80003F80003F80003F80001F8097
:10321C00001F80030F80038F80039F0000FF0000BE
:10322C00FF8001FF8001FF80001C00000F00001FC9
:10323C0080003F80003F80003F80003F80001F8067
:10324C00001F80030F80038F80019F0000FF000090
:10325C00FF8001FF8001FF80001C00000F00001F99
:10326C0080003F80003F80003F80003F80001F8037
:10327C00001F80030F80038F80019F0000FF000060
:10328C00FF8001FFC001FF80001C00000F00003F09
:10329C0080003F80003F80003F80003F80001F8007
:1032AC00001F80038F8003CF8001DF0000FF000030
:1032BC00FF8001FFC001FF80001C00000F00003FD9
:1032CC0080003F80003F80003F80003F80001F80D7
:1032DC00001F80018F8003CFC001FF8000FF8000A2
:1032EC00FF8001FFC001FF80000C00000F00003FB9
:1032FC0080003F80003F80003F80003F80001F80A7
:10330C00001F80018FC001CFC001FF8000FF800033
:10331C00FF8000FFC001FF80000C00000F80003F09
:10332C0080003F80003F80003F80003F80001FC036
:10333C00001FC0018FC001CF8001FF8000FF800003
:10334C00FF8000FF8001FF80000C00000F80003F19
:10335C0080003F80003F80003F80003FC0001FC0C6
:10336C00009FC001CFC001CF8001FF8000FF800013
:10337C00FF8000FF8001FF80000E00000F80003FE7
:10338C0080003F80003F80003FC0003FC0001FC056
:10339C00009FC001CFC001CFC001DF8000FF8000C3
:1033AC00FF8000FF8000FF80000E00000F80003FB8
:1033BC0080003F80003F80003FC0003FC0001FC026
:1033CC00009FC001CFC001CF8001DF8000FF8000D3
:1033DC00FF8000FF8000FFC0000E00000F80003F48
:1033EC0080003F80003FC0003FC0003FC0001FC0B6
:1033FC00009FC001CFC001CFC001CFC000FF800033
:10340C00FF8000FF8000FFC0000E00000F80003F17
:10341C0080003F80003FC0003FC0003FC0001FC085
:10342C00009FC001CFC001CFC000CFC000FF800003
:10343C00FF8000FF8000FFC0000E00000F80003FE7
:10344C0080003F80003FC0003FC0003FC0001FC055
:10345C00009FC001CFC001CFC000EFC000FF8000B3
:10346C00FF8000FF8000FFC0000E00001F80003FA7
:10347C0080003FC0003FC0003FC0003FC0001FC0E5
:10348C00009FC001CFC001CFC000EFC000FF800083
:10349C00FF8000FF8000FFC0000E00001F80003F77
:1034AC0080003FC0003FC0003FC0003FC0001FC0B5
:1034BC00009FC001CFC001CFC000EFC000FF800053
:1034CC00FF8000FF8000FFE0000E00001F80003F27
:1034DC0080003FC0003FC0003FC0003FC0001FC085
:1034EC0001DFC001CFC001CFC000EFC000FF8000E2
:1034FC00FF8000FF8000FFE0000E00001F80003FF7
:10350C0080003FC0003FC0003FC0003FC0001FC054
:10351C0001DFC001CFC001CFE000EF8000FF8000D1
:10352C00FF8000FF8000FFE0000F00001F80003FC5
:10353C0080003FC0003FC0003FC0003FC0001FC024
:10354C0000DFC001CFC001CFE000EF80007F800022
:10355C00FF8000FF8000FFE0000F00001F80003F95
:10356C0080003FC0003FC0003FC0003FC0001FC0F4
:10357C0000DFC001CFC000CFE000EF80007F8000F3
:10358C00FF8000FF8000FFA0000F00001F80003FA5
:10359C0080003FC0003FC0003FC0003FC0001FC0C4
:1035AC0000DFC001CFE000CFE000EF80007F8000A3
:1035BC00FF8000FF8000FFA0000F00001F80003F75
:1035CC0080003FC0003FC0003FC0003FC0001FC094
:1035DC0000DFC001CFE000EFE0006F80007F8000D3
:1035EC00FF8000FF8000FFA0000F00001F80003F45
:1035FC0080003FC0003FC0003FC0003FC0001FC064
:10360C0000DFC000CFE000EFE0007F80007F800093
:10361C00FF8000FF8000FFA0000F00001F80003F14
:10362C0080003FC0003FC0003FC0003FC0001FC033
:10363C0000DFC000CFE000EFE0007F80007F800063
:10364C007F8000FF8000FFA0000F00001F80003F64
:10365C0080003FC0003FC0003FC0003FC0003FC0E3
:10366C0000DFC000CFE000EFE0007F80007F800033
:10367C007F8000FF8000FFA0000700001F80003F3C
:10368C0080003FC0003FC0003FC0003FC0003FC0B3
:10369C0000DFC000CFE000EFE0007F80007F800003
:1036AC007F8000FF8000DFA0000700001F80003F2C
:1036BC0080003FC0003FC0003FC0003FC0003FC083
:1036CC0000DFC000CFE000EFE0007F80007F8000D3
:1036DC007F8000FF8000DFA0000700001F80003FFC
:1036EC0080003FC0003FC0003FC0003FC0003FC053
:1036FC0000DFC000CFE000EFE0007F80007F8000A3
:10370C007F8000FF8000DFA0000700001F80003FCB
:10371C0080003FC0003FC0003FC0003FC0003FC022
:10372C0000DFC000CFE000EFE0007F80007F800072
:10373C007F8000FF8000DFA0000700001F80003F9B
:10374C0080003FC0003FC0003FC0003FC0003FC0F2
:10375C0000DFC000CFE000EFE0007F80007F800042
:10376C007F8000FF8000DFA0000700001F80003F6B
:10377C0080003FC0003FC0003FC0003FC0003FC0C2
:10378C0000DFC000CFE000EFE0007F80007F800012
:10379C007F8000FF8000DFA0000700001F80003F3B
:1037AC0080003FC0003FC0003FC0003FC0003FC092
:1037BC0000DFC000CFE000EFE0007FC0007F8000A2
:1037CC007F8000FF8000DFA0000700001F80003F0B
:1037DC0080003FC0003FC0003FC0003FC0003FC062
:1037EC0000DFC000CFC000EFE0007FC0007F800092
:1037FC007F8000FF8000DFA0000700001F80003FDB
:10380C0080003FC0003FC0003FC0003FC0003FC031
:10381C0000DFC000CFC000EFE0007FC0007F800061
:10382C00FF8000FF8000DFA0000700001F80003F2A
:10383C0080003FC0003FC0003FC0003FC0003FC001
:10384C0000DFC000CFC000EFE0007FC0007F800031
:10385C00FF8000FF8000DFA0000F00001F80003FF2
:10386C0080003FC0003FC0003FC0003FC0003FC0D1
:10387C0000DFC000CFC000EFE0007FC0007F800001
:10388C00FF8000FF8000DFA0000F00001F80003FC2
:10389C0080003FC0003FC0003FC0003FC0003FC0A1
:1038AC0000DFC000CFC000EFE0007FC0007F8000D1
:1038BC00FF8000FF8000DFA0000F00001F80003F92
:1038CC0080003FC0003FC0003FC0003FC0003FC071
:1038DC0000DFC000CFC000EFE0007FC0007F8000A1
:1038EC00FF8000FF8000DFA0000F00001F80003F62
:1038FC0080003FC0003FC0003FC0003FC0003FC041
:10390C0000DFC000DFC000EFE0007FC0007F800060
:10391C00FF8000FF8000DFA0000F00001F80003F31
:10392C0080003FC0003FC0003FC0003FC0001FC030
:10393C0000DFC001DFC000EFE0007FC0007F80002F
:10394C00FF8000FF8000DFA0000F00001F80003F01
:10395C0080003FC0003FC0003FC0003FC0001FC000
:10396C0000DFC001DFC000EFE0007FC0007F8000FF
:10397C00FF8000FF8000DFA0000F00001F80003FD1
:10398C0080003FC0003FC0003FC0003FC0003FC0B0
:10399C0000DFC001DFC000EFE0007FC0007F8000CF
:1039AC00FF8000FF8000DFA0000E00001F80003FA2
:1039BC0080003FC0003FC0003FC0003FC0003FC080
:1039CC0000DFC001DFC000CFC000FFC000FF8000DF
:1039DC00FF8000FF8000DFA0000E00001F80003F72
:1039EC0080003FC0003FC0003FC0003FC0003FC050
:1039FC0001DFC001DFC000CFC000FFC000FF8000AE
:103A0C00FF8000FF8000DFA0000E00001F80003F41
:103A1C0080003FC0003FC0003FC0003FC0003FC01F
:103A2C0001DFC001DFC001CFC000FFC000FF80007C
:103A3C00FF8000FF8000DFA0000E00001F80003F11
:103A4C0080003FC0003FC0003FC0003FC0003FC0EF
:103A5C0001DFC001DFC001CFC000FFC000FF80004C
:103A6C00FF8000FF8000DFA0000E00001F80003FE1
:103A7C0080003FC0003FC0003FC0003FC0003FC0BF
:103A8C0001DFC001DFC001CFC000FFC000FF80001C
:103A9C00FF8000FF8000DFA0000E00001F80003FB1
:103AAC0080003F80003FC0003FC0003FC0003FC0CF
:103ABC0001DFC001DFC001DFC000FFC000FF8000DC
:103ACC00FF8000FF8000DFA0000E00001F80003F81
:103ADC0080003F80003FC0003FC0003FC0003FC09F
:103AEC0001DFC001DFC001DFC000FFC000FF8000AC
:103AFC00FF8000FF8000DFA0001E00001F80003F41
:103B0C0080007F80007FC0007FC0003FC0003FC0AE
:103B1C00019FC001DFC001DFC000FFC000FF8000BB
:103B2C00FF8000FF8000DFA0001E00001F80003F10
:103B3C0080007F80007FC0007FC0003FC0003FC07E
:103B4C00019FC001DFC001DFC000FFC000FF80008B
:103B5C00FF8000FF8000DFA0001E00001F80003FE0
:103B6C0080007F80007F80007FC0003FC0003FC08E
:103B7C00019FC001DFC001DFC000FFC000FF80005B
:103B8C00FF8000FF8000DFA0001C00001F80003FB2
:103B9C0080007F80007F80007FC0007FC0003FC01E
:103BAC00019FC001DFC001DFC001DF8000FF80008A
:103BBC00FF8000FF8000FFA0001C00001F80007F22
:103BCC0080007F80007F80007F80003FC0003FC06E
:103BDC00019FC001DFC001DFC001DF8000FF80005A
:103BEC00FF8000FF8000FFA0003E00001F00007F50
:103BFC0080007F80007F80007F80007F80003FC03E
:103C0C00019FC001DFC001DF8001DF8000FF800069
:103C1C00FF8000FF8000FFA0003E00001F00007F1F
:103C2C0080007F80007F80007F80007F80003F804D
:103C3C00019FC001DFC001DFC001DF8000FF8000F9
:103C4C00FF8000FF8000FF80003E00001F00007F0F
:103C5C0080007F80007F80007F80007F80003F801D
:103C6C0001BF8001DFC001DFC001DFC000FF8000A9
:103C7C00FF8000FF8001FF80003E00001F00007FDE
:103C8C0080007F80007F80007F80007F80003F80ED
:103C9C0000FF8003FF8003DFC001DF8000FF800096
:103CAC00FF8001FF8001FF80003A00003F00007F91
:103CBC0080007F80007F80007F80007F80003F80BD
:103CCC00003F8003BF8003CFC003DF8001FF800073
:103CDC00FF8001FF8001FF80003A00003F00007F61
:103CEC0080007F80007F80007F80007F80003F808D
:103CFC00003F8003BF8003CF8003DF8001FF800083
:103D0C00FF8001FF8001FF80003A00003F00007F30
:103D1C0080007F80007F80007F80007F80003F805C
:103D2C00003F80033F8003AF8003DF8001FF8000F2
:103D3C00FF8001FF8001FF80003E00003F00007FFC
:103D4C0080007F80007F80007F80007F80003F802C
:103D5C00003F80013F8003AF8003BF8003FF8000E2
:103D6C00FF8001FF8001FF80003E00003F00007FCC
:103D7C0080007F80007F80007F80007F80003F80FC
:103D8C00003F8001378003BF8003BF8003FF8001A9
:103D9C00FF8000FF8001FF80003E00003F00007F9D
:103DAC0080007F80007F80007F80007F80003F80CC
:103DBC00003F80003780033F8003BF8003FF8001FA
:103DCC00FF8000FF8001FF80007E00003F00007F2D
:103DDC0080007F80007F80007F80007F80003F809C
:103DEC00003F80003780033F8003BF8003BF800308
:103DFC00FF8000FF8001FF80007E00003F00007FFD
:103E0C0080007F80007F80007F80007F80003F806B
:103E1C00003F80003780033F8007BF8007BF8003CF
:103E2C00FF8000FF8000FF80007E00007F00007F8D
:103E3C0080007F80007F8000FF80007F80003F80BB
:103E4C00003F80003780003F80073F80071F8007BE
:103E5C00BF8003FF8000FF8000FE00007F00007F1A
:103E6C0000007F8000FF8000FF8000FF80007F80CB
:103E7C00003F80003780003F80063F80071F80078F
:103E8C003F8007FF8001FF8000FE0000FE00007FE6
:103E9C000000FF8000FF8000FF8000FF80003F805B
:103EAC00003F80003780003F80003F800E1F800E57
:103EBC003F800FBF8007FF8001FE0000FE00007FE7
:103ECC000000FF8000FF8000FF8000FF80007F80EB
:103EDC00003F80003F80003F80003F80001F800E2D
:103EEC001F800E3F800FFF8001FC0001FE0000FFD1
:103EFC000000FF0000FF8000FF8000FF80007F803B
:103F0C00003F80003F80003F80003F80003F8004E6
:103F1C001F800E3F801E7FC003FC0001FE0000FFCF
:103F2C000000FF0000FF8000FF8000FF8000FF808A
:103F3C00003F80003780003F80003F80003F8000C2
:103F4C001F800C1FC01E1FC003FC0003FE0001FFDE
:103F5C000000FF0000FF0001FF8000FF8000FF80D9
:103F6C00003F80003780003F80001F80001F8000D2
:103F7C001FC0001FC00C1FC001BC0003FE0001FECF
:103F8C000000FF0000FF0001FF8000FF8000FF80A9
:103F9C00007F80003780001F80000F80001F800092
:103FAC001FC0001FC0001FA0001C0003FE0003FE6A
:103FBC000001FF0000FF0000FF8000FF8000FF8079
:103FCC00007F80003780001780000F80001F80006A
:103FDC001FC0001F80001FE000180003FE0003FE3E
:103FEC000001FF0000FF0000FF8000FF8000FF8049
:103FFC00007F80003F80001780001F80000F800032
:10400C001FC0001FE0001FE000000001FE0001FEC9
:10401C000001FF0000FF0000FF8000FF8000FF8018
:10402C00007F80003F80003780000780000F8000F9
:10403C000FC0000FC0000FE0000000000E0001FEDA
:10404C000001FF0000FF8000FF8000FF8000FF8068
:10405C00007F80003F800037C00007800007C00051
:10406C000FC0000FC0000FE000000000060000FFB2
:10407C000000FF00007F80007F80007F80007F8039
:10408C00007F80003F80003F800027C00007C000F9
:10409C0007C0000FE0000FE0000000000000007FF0
:1040AC0000007F80007F80007F80007F80007F8009
:1040BC00007F80003FC0003F800037C00023C0005D
:1040CC0007E00007E00007F0000000000000003FE0
:1040DC0080003F80003F80003FC0003FC0007FC099
:1040EC00007FC0001FC0001FC00033C00033E000C1
:1040FC0003E00007F00007F0000000000000001FC4
:10410C0080001F80001FC0003FC0003FC0003FC0A8
:10411C00003FC0001FC0001FC00013C00033E000F0
:10412C0023F00003F00003F0000000000000000E7C
:10413C0000000FC0001FC0001FE0003FE0003FE088
:10414C00001FE0001FE0000FE0001BE00011E0008A
:10415C0011F00023F00003F0000000000000000745
:10416C00000007C0000FE0001FE0001FF0001FF070
:10417C00001FF0000FF0000FE00009E00009E00064
:10418C0001F00001F00001F000000000000000034D
:10419C00800003E0000FF0000FF0001FF0001FF094
:1041AC00000FF00007F00007F00005F00005F0002C
:1041BC0009F00001F00001F00000000000C0000058
:1041CC00F00003F00007F0000FF0000FF00007F014
:1041DC000007F00007F00003F00006F00004F00008
:1041EC0004F00000F00000F00000400000E00001CE
:1041FC00F00003F00007F00007F00007F00003F0F8
:10420C000003F00003F00003F00003F00001F000E5
:10421C0000F00000F00000F0000030000070000121
:10422C00F00003F00003F00003F00003F00001F0D5
:10423C000001F00001F00001F00000F00000F000BF
:10424C0000F00000F00000F00000100000F0000191
:10425C00F00001F00003F00001F00001F00001F0AB
:10426C000001F00000F00000700000700000F00091
:10427C0000F00000F00000F00000000000700000F2
:10428C00F00001F00001F00001F00000F00000F07F
:10429C000000F00000F00000F00000F00000F00062
:1042AC0000F00000F00000F00000000000700000C2
:1042BC00F00000F00000F00000F00000F0000070D2
:1042CC000000700000700000700000700001F00031
:1042DC0001F00001F00003F00000000000300000CD
:1042EC007000007000007000007000007000007022
:1042FC000000700000700000700001F00003F0007E
:10430C0007F0001FF0003FF000000000003000003C
:10431C007000007000007000007000007000003031
:10432C000000300000700003F0001FF0007FF00D63
:10433C00FFF01EFFF01FFFF0000000000010000057
:10434C003000007000007000007000007000003041
:10435C001800701DE7F01DFFF01DFFF001F9F001D2
:10436C00FDF001FDF001FFF00000000C00101C003E
:10437C00301C00700C00700F807003E07003F8703C
:10438C0003FFF007FFF007F1F00FF1F00FFBF00F58
:10439C00FBF003FBF00003F007C00000600000F02E
:1043AC001000F03003F87007FC700FFEF00FFFF0F8
:1043BC000FFFF007F5F003F1F001F1F00061F000F0
:1043CC0003F00003F00003F00038000018000018A0
:1043DC00000FF8000FFC1007FC3007FE3003FE3016
:1043EC0003FFF001FFF001F1F000E0F00000F0003D
:1043FC0001F00001F00001F00000000004000006D4
:10440C000001060001860001C60001FE0001FE004D
:10441C0001FE1001FE1001FF3000FFF000FFF00064
:10442C0031F00000F00000F000000000000000007F
:10443C000000000000000000010000230000330019
:10444C00003300003F00007F00007F10007F100051
:10445C00FF10007FF0007FF0000000000000000063
:10446C000000000000000000000000000000000040
:10447C00000000000000000500000F00000F00000D
:10448C001F00003F00003F80000000000000000003
:10449C000000000000000000000000000000000010
:1044AC000000000000000000000000000000000000
:1044BC0000000000C00003800000000000000000AD
:1044CC0000000000000000000000000000000000E0
:1044DC0000000000000000000000000000000000D0
:1044EC0000000000000000000000000000000000C0
:1044FC0000000000000000000000000000000000B0
:10450C00000000000000000000000000000000009F
:10451C00000000000000000001C0000000000000CE
:10452C00000000000000000000000000000000007F
:10453C00000000000000000000000000000000006F
:10454C00000000000000000001C00000C0000000DE
:10455C00000000000000000000000000000000004F
:10456C00000000000000000000000000000000003F
:10457C00000000000000000001E00000C00000008E
:10458C00000000000000000000000000000000001F
:10459C00000000000000000000000000000000000F
:1045AC00000000000000000000E00000E00000C07F
:1045BC0000000000000000000000000000000000EF
:1045CC0000000000000000000000000000000000DF
:1045DC00000000000000000000E00000E00000E02F
:1045EC000000C000000000000000000000000000FF
:1045FC0000000000000000000000000000000000AF
:10460C00000000000000000000400000E00000E09E
:10461C000000E0000060000000000000000000004E
:10462C00000000000000000000000000000000007E
:10463C00000000000000000000000000E00000E0AE
:10464C000000E00000E0000040000000000000005E
:10465C00000000000000000000000000000000004E
:10466C00000000000000000000000000000000E05E
:10467C000000F00000F00000E0000000000000006E
:10468C00000000000000000000000000000000001E
:10469C0000000000000000000000000000000060AE
:1046AC000000F00000F00000F000006000000000CE
:1046BC0000000000000000000000000000000000EE
:1046CC0000000000000000000000000000000000DE
:1046DC000000600000F00000F00000F0000060003E
:1046EC0000000000000000000000000000000000BE
:1046FC0000000000000000000000000000000000AE
:10470C000000600000700000F00000F0000070007D
:10471C00000000000000000000000000000000008D
:10472C00000000000000000000000000000000007D
:10473C000000000000700000F00000F00000F0002D
:10474C00000000000000000000000000000000005D
:10475C00000000000000000000000000000000004D
:10476C000000000000000000F00000F00000F80065
:10477C0000700000000000000000000000000000BD
:10478C00000000000000000000000000000000001D
:10479C000000000000000000700000700000F80035
:1047AC000078000030000000000000000000000055
:1047BC0000000000000000000000000000000000ED
:1047CC0000000000000000000000007000007800F5
:1047DC0000780000700000000000000000000000E5
:1047EC0000000000000000000000000000000000BD
:1047FC0000000000000000000000007000007800C5
:10480C00007800007800007000000000000000003C
:10481C00000000000000000000000000000000008C
:10482C000000000000000000000000000000780004
:10483C0000F80000F800007000000000000000000C
:10484C00000000000000000000000000000000005C
:10485C0000000000000000000000000000007800D4
:10486C0000780000780000780000200000000000B4
:10487C00000000000000000000000000000000002C
:10488C0000000000000000000000000000003800E4
:10489C000078000078000078000070000000000034
:1048AC0000000000000000000000000000000000FC
:1048BC0000000000000000000000000000000000EC
:1048CC0000780000780000780000780000000000FC
:1048DC0000000000000000000000000000000000CC
:1048EC0000000000000000000000000000000000BC
:1048FC00007800007800007800007800003000009C
:10490C00000000000000000000000000000000009B
:10491C00000000000000000000000000000000008B
:10492C00003800007800007C00007800007800005F
:10493C00000000000000000000000000000000006B
:10494C00000000000000000000000000000000005B
:10495C00003000007800007C00007C000078000033
:10496C00000000000000000000000000000000003B
:10497C00000000000000000000000000000000002B
:10498C00003000007800007C00007C000078000003
:10499C0068000000000000000000000000000000A3
:1049AC0000000000000000000000000000000000FB
:1049BC00003000007800007C0000780000780000D7
:1049CC00700000000000000000000000000000006B
:1049DC0000000000000000000000000000000000CB
:1049EC00003000007800007C0000780000780000A7
:1049FC00700000000000000000000000000000003B
:104A0C00000000000000000000000000000000009A
:104A1C00003000007800007800007800007800007A
:104A2C007800000000000000000000000000000002
:104A3C00000000000000000000000000000000006A
:104A4C00003000007800007800007800007800004A
:104A5C0070000000000000000000000000000000DA
:104A6C00000000000000000000000000000000003A
:104A7C00003000007800007800007C000078000016
:104A8C0070000000000000000000000000000000AA
:104A9C00000000000000000000000000000000000A
:104AAC00003800007800007C00007C0000780000DA
:104ABC0020000000000000000000000000000000CA
:104ACC0000000000000000000000000000000000DA
:104ADC00007800007C00007C00007800007800006A
:104AEC0000000000000000000000000000000000BA
:104AFC0000000000000000000000000000000000AA
:104B0C00007800007C00007C000078000070000041
:104B1C000000000000000000000000000000000089
:104B2C000000000000000000000000000000200059
:104B3C000078000078000078000078000070000019
:104B4C000000000000000000000000000000000059
:104B5C0000000000000000000000000000007800D1
:104B6C0000F80000F80000F80000780000000000D9
:104B7C000000000000000000000000000000000029
:104B8C0000000000000000000000000000007800A1
:104B9C0000F80000FC0000F80000700000000000AD
:104BAC0000000000000000000000000000000000F9
:104BBC000000000000000000000000300000780041
:104BCC0000FC0000F80000F80000300000000000BD
:104BDC0000000000000000000000000000000000C9
:104BEC000000000000000000000000700000F80051
:104BFC0000F80000780000780000000000000000C1
:104C0C000000000000000000000000000000000098
:104C1C000000000000000000000000780000780098
:104C2C000078000078000070000000000000000018
:104C3C000000000000000000000000000000000068
:104C4C000000000000000000300000F80000F80038
:104C5C0000F80000F80000600000000000000000F8
:104C6C000000000000000000000000000000000038
:104C7C000000000000000000700000F80000F800C8
:104C8C0000F80000700000000000000000000000B0
:104C9C000000000000000000000000000000000008
:104CAC000000000000200000F00000F80000F800F8
:104CBC0000F8000070000000000000000000000080
:104CCC0000000000000000000000000000000000D8
:104CDC000000000000600000F80000F80000F80080
:104CEC0000F80000000000000000000000000000C0
:104CFC0000000000000000000000000000000000A8
:104D0C000000000000700000F80000F80000F8003F
:104D1C0000F800000000000000000000000000008F
:104D2C000000000000000000000000000000000077
:104D3C000000000000700000F80000F80000F8000F
:104D4C0000F0000000000000000000000000000067
:104D5C000000000000000000000000000000000047
:104D6C000000000000700000F80000F80000F800DF
:104D7C0000F0000000000000000000000000000037
:104D8C000000000000000000000000000000000017
:104D9C000000000000700000F80000F80000F800AF
:104DAC0000F0000000000000000000000000000007
:104DBC0000000000000000000000000000000000E7
:104DCC000000000000700000F80000F80000F8007F
:104DDC0000F00000000000000000000000000000D7
:104DEC0000000000000000000000000000000000B7
:104DFC000000000000700000F80000F80000FC004B
:104E0C0000F800000000000000000000000000009E
:104E1C000000000000000000000000000000000086
:104E2C000000000000700000F80000FC0000F8001A
:104E3C0000F800000000000000000000000000006E
:104E4C000000000000000000000000000000000056
:104E5C000000000000700000F80000F80000F800EE
:104E6C0000F800000000000000000000000000003E
:104E7C000000000000000000000000000000000026
:104E8C000000000000700000F80000F80000FC00BA
:104E9C0000F80000600000000000000000000000AE
:104EAC0000000000000000000000000000000000F6
:104EBC000000000000680000F80000FC0000FC008E
:104ECC0000F800007000000000000000000000006E
:104EDC0000000000000000000000000000000000C6
:104EEC000000000000700000F80000FC0000FC0056
:104EFC0000F800007000000000000000000000003E
:104F0C000000000000000000000000000000000095
:104F1C000000000000000000F80000FC0000FC0095
:104F2C00007800007000000000000000000000008D
:104F3C000000000000000000000000000000000065
:104F4C000000000000000000780000FC0000FC00E5
:104F5C00007C000078000000000000000000000051
:104F6C000000000000000000000000000000000035
:104F7C000000000000000000780000FC0000FC00B5
:104F8C0000FC0000780000000000000000000000A1
:104F9C000000000000000000000000000000000005
:104FAC0000000000000000007800007C0000FC0005
:104FBC0000FC000078000010000000000000000061
:104FCC0000000000000000000000000000000000D5
:104FDC0000000000000000007800007C00007C0055
:104FEC00007C00007C0000100000000000000000AD
:104FFC0000000000000000000000000000000000A5
:10500C0000000000000000007000007C00007E002A
:10501C00007C00007C00003000000000000000005C
:10502C000000000000000000000000000000000074
:10503C0000000000000000007000007C00007C00FC
:10504C00007C00007C0000780000000000000000E4
:10505C000000000000000000000000000000000044
:10506C0000000000000000001000007C00007C002C
:10507C00007E00007C0000780000000000000000B2
:10508C000000000000000000000000000000000014
:10509C0000000000000000000000007C00007C000C
:1050AC00007E00007C000078000000000000000082
:1050BC0000000000000000000000000000000000E4
:1050CC0000000000000000000000007C00007E00DA
:1050DC00007E00007C00007C00001000000000003E
:1050EC0000000000000000000000000000000000B4
:1050FC0000000000000000000000007C00007E00AA
:10510C00007E00007C00007C00001000000000000D
:10511C000000000000000000000000000000000083
:10512C0000000000000000000000003C00007C00BB
:10513C00007E00007E00007C0000180000000000D3
:10514C000000000000000000000000000000000053
:10515C0000000000000000000000003C00007C008B
:10516C00007E00007E00007C0000180000000000A3
:10517C000000000000000000000000000000000023
:10518C0000000000000000000000007800007C001F
:10519C00007E00007E00007C00002000000000006B
:1051AC0000000000000000000000000000000000F3
:1051BC0000000000000000000000003800007C002F
:1051CC00007E00007C00007C00003000000000002D
:1051DC0000000000000000000000000000000000C3
:1051EC0000000000000000000000007800007C00BF
:1051FC00007E00007C000078000030000000000001
:10520C000000000000000000000000000000000092
:10521C0000000000000000000000007800007C008E
:10522C00007E00007C0000780000300000000000D0
:10523C000000000000000000000000000000000062
:10524C0000000000000000000000007800007C005E
:10525C00007C00007C00007C000038000000000096
:10526C000000000000000000000000000000000032
:10527C0000000000000000000000003800007C006E
:10528C0000FC0000FC00007C000038000000000066
:10529C000000000000000000000000000000000002
:1052AC0000000000000000000000007800007C00FE
:1052BC0000FC0000FC00007C00003000000000003E
:1052CC0000000000000000000000000000000000D2
:1052DC0000000000000000000000007800007C00CE
:1052EC0000FC0000FC0000780000700000000000D2
:1052FC00000000000000000000FFF00000000000B3
:10530C0000000000000000000000007800007C009D
:10531C0000FC0000FC0000780000700000000000A1
:10532C000000000000000000FFFFF00FFFF0000085
:10533C003000003000001000000000300000FC00C5
:10534C0000FC0000FC000078000070000000000071
:10535C000000000000000000FFFFF0FFFFF08007DE
:10536C00F0000FF00007F000003000303000F83093
:10537C0000FC1000FC000078000070000000000031
:10538C0000000000000000003FFFF0007FF0007FF5
:10539C00F0003FF00001F00001E00031E000F9E026
:1053AC0000FDF000FCF000F8700070300000000010
:1053BC000000000000000000FDC000FF0000FF0026
:1053CC0000FFCC00FFDF00FFCF90FF8FB0FF07F096
:1053DC00FF03F0FF03F0FF03F0FF87F0FFFFF0FF88
:1053EC00FFF0FFFFF0FFFFF0FDC000FF0000FF002B
:1053FC0000FFCC00FFDF00FFCF90FF8FB0FF07F066
:10540C00FF03F0FF03F0FF03F0FF87F0FFFFF0FF57
:10541C00FFF0FFFFF0FFFFF0FDC000FF0000FF00FA
:10542C0000FFCC00FFDF00FFCF90FF8FB0FF07F035
:10543C00FF03F0FF03F0FF03F0FF87F0FFFFF0FF27
:10544C00FFF0FFFFF0FFFFF0FDC000FF0000FF00CA
:10545C0000FFCC00FFDF00FFCF90FF8FB0FF07F005
:10546C00FF03F0FF03F0FF03F0FF87F0FFFFF0FFF7
:10547C00FFF0FFFFF0FFFFF0FDC000FF0000FF009A
:10548C0000FFCC00FFDF00FFCF90FF8FB0FF07F0D5
:10549C00FF03F0FF03F0FF03F0FF87F0FFFFF0FFC7
:1054AC00FFF0FFFFF0FFFFF0FDC000FF0000FF006A
:1054BC0000FFCC00FFDF00FFCF90FF8FB0FF07F0A5
:1054CC00FF03F0FF03F0FF03F0FF87F0FFFFF0FF97
:1054DC00FFF0FFFFF0FFFFF0FDC000FF0000FF003A
:1054EC0000FFCC00FFDF00FFCF90FF8FB0FF07F075
:1054FC00FF03F0FF03F0FF03F0FF87F0FFFFF0FF67
:10550C00FFF0FFFFF0FFFFF0FDC000FF0000FF0009
:10551C0000FFCC00FFDF00FFCF90FF8FB0FF07F044
:10552C00FF03F0FF03F0FF03F0FF87F0FFFFF0FF36
:10553C00FFF0FFFFF0FFFFF0FDC000FF0000FF00D9
:10554C0000FFCC00FFDF00FFCF90FF8FB0FF07F014
:10555C00FF03F0FF03F0FF03F0FF87F0FFFFF0FF06
:10556C00FFF0FFFFF0FFFFF0FDC000FF0000FF00A9
:10557C0000FFCC00FFDF00FFCF90FF8FB0FF07F0E4
:10558C00FF03F0FF03F0FF03F0FF87F0FFFFF0FFD6
:10559C00FFF0FFFFF0FFFFF0FDC000FF0000FF0079
:1055AC0000FFCC00FFDF00FFCF90FF8FB0FF07F0B4
:1055BC00FF03F0FF03F0FF03F0FF87F0FFFFF0FFA6
:1055CC00FFF0FFFFF0FFFFF0FDC000FF0000FF0049
:1055DC0000FFCC00FFDF00FFCF90FF8FB0FF07F084
:1055EC00FF03F0FF03F0FF03F0FF87F0FFFFF0FF76
:1055FC00FFF0FFFFF0FFFFF0FDC000FF0000FF0019
:10560C0000FFCC00FFDF00FFCF90FF8FB0FF07F053
:10561C00FF03F0FF03F0FF03F0FF87F0FFFFF0FF45
:10562C00FFF0FFFFF0FFFFF0FDC000FF0000FF00E8
:10563C0000FFCC00FFDF00FFCF90FF8FB0FF07F023
:10564C00FF03F0FF03F0FF03F0FF87F0FFFFF0FF15
:10565C00FFF0FFFFF0FFFFF0C00000F80000FC00BF
:10566C0000FE0000FF0010FC0030FC00F0FC00F01D
:10567C00FC07F0FC07F0FE0FF0FFFFF0FFFFF0FF60
:10568C00FFF0FFFFF0FFFFF0000000800000F000D3
:10569C0000F80000FC0070C000F0C001F0C071F018
:1056AC00C07FF0C07FF0F0FFF0FFFFF0FFFFF0FFD6
:1056BC00FFF0FFFFF0FFFFF0800000000000000093
:1056CC0000F00000E000008001C00001F001C3F018
:1056DC0001FFF001FFF083FFF0CFFFF0FFFFF0FFC1
:1056EC00FFF0FFFFF0FFFFF0800000000000000063
:1056FC00000000008000008000000000000F01E0AE
:10570C000FEFF00FFFF00FFFF03FFFF0FFFFF0FF88
:10571C00FFF0FFFFF0FFFFF00007700000202000FB
:10572C00000000000000000000000000000000006D
:10573C00FB1FC0FF9FF0FFFFF0FFFFF0FFFFF0FF2C
:10574C00FFF0FFFFF0FFFFF0001FF0001EF0000F56
:10575C00F0800000000000000000000000000000CD
:10576C00003000FE7C00FE7FF0FF7FF0FFFFF0FFBB
:10577C00FFF0FFFFF0FFFFF010FFF0007FF0007F65
:10578C00F0007FF0005F000000000000000000004F
:10579C0000000000000000F000FCFF00FEFFF0FF26
:1057AC00FFF0FFFFF0FFFFF073FFF063FFF021FF4E
:1057BC00F001FFF000FFF000FF100060000000009F
:1057CC00000000000000000000000000F1FE00F9E5
:1057DC00FFE0FFFFF0FFFFF0FFFFF0E7FFF0E7FF58
:1057EC00F047FFF003FFF0033FF0013E70010000B3
:1057FC00000000000000000000000000008000E03D
:10580C00FC00F7FFD0FFFFF0FFFFF0FFFFF0CFFF32
:10581C00F0CFFFF08FFFF007FFF003FFF003F03045
:10582C00000010000000000000000000000000015B
:10583C00C010E3FF10FFFFB07FFFF03FFFF0DFFF72
:10584C00F09FFFF01FFFF00FFFF007FFF007FFF0D6
:10585C000000700000300000100000100000000379
:10586C00800087F870FFFF707FFFF0FFFFF09FFF55
:10587C00F01FFFF01FFFF01FFFF00FFFF007FFF00E
:10588C000000700000300000100000100000100735
:10589C00001007F070DFFEF0FFFFF07FFFF01FFF3E
:1058AC00F01FFFF01FFFF00FFFF007FFF003FFF0FA
:1058BC0000007000007000000000001000001006D6
:1058CC00003007E030DFFE703FFFF03FFFF03FFF9E
:1058DC00F09FFFF09FFFF00FFFF007FFF003FFF0CA
:1058EC000400300000300000100000000000000236
:1058FC00000007C030DFFE701FFFF01FFFF01FFF1E
:10590C00F00FFFF04FFFF007FFF003FFF001FFF087
:10591C000200300000100000000000000000000039
:10592C00000001C000C3FC303FFFF00FFFF00FFF81
:10593C00F007FFF043FFF003FFF003FFF000FFF070
:10594C00001000000000000000000000000000003B
:10595C00000000C00080F80007FFF003FFF003FF19
:10596C00F001FFF001FFF001FFF000FFF000FFF08D
:10597C00011F1000000000000000000000000000EB
:10598C00000000000000300001FFF0007FF000FF7D
:10599C00F0007FF0047FF0007FF0007FF0007FF0DC
:1059AC008007F080000000000000000000000000F4
:1059BC000000000000001000003FF0003FF0001F4E
:1059CC00F00017F0013FF0003FF0003FF0003FF017
:1059DC000001F02008C06000000000000000000082
:1059EC000000000000000000001FF0C009F0C0071C
:1059FC00F0C00BF0803FF0800FF08007F08007F0D4
:105A0C000003F00008709801001000000000000076
:105A1C000000800000800000C001F0E00070F00683
:105A2C0070F003F0F00FF06007F06003F00001F08D
:105A3C008001F0C00070E40100CC00008800000080
:105A4C000000000000E00000F00030F00030FC012D
:105A5C00B0FC04F01C03F01801F01809F000007001
:105A6C00E00070F00030F30000F30000E6000000EE
:105A7C000000000000E00000F80020FC0000FF0027
:105A8C00B0FF0070C700F0860070C20670E3001013
:105A9C00F80010FC0010FC4000FCC030F98000F154
:105AAC000000000000000000FE0010FE0000FF00DF
:105ABC0000FF8030F38050E380F0E180F0F1801043
:105ACC00FC0000FE0000FF0000FF2000FE6000FC58
